{
  "contractName": "RahatAdmin",
  "abi": [
    {
      "inputs": [
        {
          "internalType": "contract RahatERC20",
          "name": "_erc20",
          "type": "address"
        },
        {
          "internalType": "contract Rahat",
          "name": "_rahatContract",
          "type": "address"
        },
        {
          "internalType": "uint256",
          "name": "_intitialSupply",
          "type": "uint256"
        },
        {
          "internalType": "address",
          "name": "_admin",
          "type": "address"
        }
      ],
      "stateMutability": "nonpayable",
      "type": "constructor"
    },
    {
      "anonymous": false,
      "inputs": [
        {
          "indexed": false,
          "internalType": "bool",
          "name": "success",
          "type": "bool"
        }
      ],
      "name": "Minted",
      "type": "event"
    },
    {
      "anonymous": false,
      "inputs": [
        {
          "indexed": true,
          "internalType": "bytes32",
          "name": "projectId",
          "type": "bytes32"
        },
        {
          "indexed": false,
          "internalType": "uint256",
          "name": "projectCapital",
          "type": "uint256"
        },
        {
          "indexed": false,
          "internalType": "string",
          "name": "tag",
          "type": "string"
        }
      ],
      "name": "ProjectERC20BudgetUpdated",
      "type": "event"
    },
    {
      "inputs": [],
      "name": "erc20",
      "outputs": [
        {
          "internalType": "contract RahatERC20",
          "name": "",
          "type": "address"
        }
      ],
      "stateMutability": "view",
      "type": "function"
    },
    {
      "inputs": [
        {
          "internalType": "address",
          "name": "",
          "type": "address"
        }
      ],
      "name": "owner",
      "outputs": [
        {
          "internalType": "bool",
          "name": "",
          "type": "bool"
        }
      ],
      "stateMutability": "view",
      "type": "function"
    },
    {
      "inputs": [
        {
          "internalType": "bytes32",
          "name": "",
          "type": "bytes32"
        }
      ],
      "name": "projectERC20Capital",
      "outputs": [
        {
          "internalType": "uint256",
          "name": "",
          "type": "uint256"
        }
      ],
      "stateMutability": "view",
      "type": "function"
    },
    {
      "inputs": [
        {
          "internalType": "bytes32",
          "name": "",
          "type": "bytes32"
        }
      ],
      "name": "projectExists",
      "outputs": [
        {
          "internalType": "bool",
          "name": "",
          "type": "bool"
        }
      ],
      "stateMutability": "view",
      "type": "function"
    },
    {
      "inputs": [
        {
          "internalType": "uint256",
          "name": "",
          "type": "uint256"
        }
      ],
      "name": "projectId",
      "outputs": [
        {
          "internalType": "bytes32",
          "name": "",
          "type": "bytes32"
        }
      ],
      "stateMutability": "view",
      "type": "function"
    },
    {
      "inputs": [],
      "name": "rahatContract",
      "outputs": [
        {
          "internalType": "contract Rahat",
          "name": "",
          "type": "address"
        }
      ],
      "stateMutability": "view",
      "type": "function"
    },
    {
      "inputs": [
        {
          "internalType": "string",
          "name": "_projectId",
          "type": "string"
        },
        {
          "internalType": "uint256",
          "name": "_projectCapital",
          "type": "uint256"
        }
      ],
      "name": "setProjectBudget_ERC20",
      "outputs": [],
      "stateMutability": "nonpayable",
      "type": "function"
    },
    {
      "inputs": [
        {
          "internalType": "string",
          "name": "_projectId",
          "type": "string"
        }
      ],
      "name": "getProjecERC20Balance",
      "outputs": [
        {
          "internalType": "uint256",
          "name": "_balance",
          "type": "uint256"
        }
      ],
      "stateMutability": "view",
      "type": "function"
    },
    {
      "inputs": [
        {
          "internalType": "address",
          "name": "_address",
          "type": "address"
        },
        {
          "internalType": "uint256",
          "name": "_amount",
          "type": "uint256"
        }
      ],
      "name": "mintERC20",
      "outputs": [],
      "stateMutability": "nonpayable",
      "type": "function"
    },
    {
      "inputs": [
        {
          "internalType": "address",
          "name": "_account",
          "type": "address"
        }
      ],
      "name": "addOwner",
      "outputs": [],
      "stateMutability": "nonpayable",
      "type": "function"
    }
  ],
  "bytecode": "0x608060405234801561001057600080fd5b50604051610bb1380380610bb183398101604081905261002f91610107565b600080546001600160a01b038681166001600160a01b031992831681179093556001805491871691909216179055604051631f132a7360e21b815230600482015260248101849052637c4ca9cc906044016020604051808303816000875af115801561009f573d6000803e3d6000fd5b505050506040513d601f19601f820116820180604052508101906100c3919061015c565b506001600160a01b03166000908152600260205260409020805460ff1916600117905550610175915050565b6001600160a01b038116811461010457600080fd5b50565b6000806000806080858703121561011d57600080fd5b8451610128816100ef565b6020860151909450610139816100ef565b604086015160608701519194509250610151816100ef565b939692955090935050565b60006020828403121561016e57600080fd5b5051919050565b610a2d806101846000396000f3fe608060405234801561001057600080fd5b506004361061008e5760003560e01c8063179680b11461009357806334854e2f146100a857806338975895146100ce5780634dd1f816146101015780634ff1a56914610114578063666e1b391461013f5780637065cb4814610162578063785e9e86146101755780637c4ca9cc14610188578063f7597a4f1461019b575b600080fd5b6100a66100a13660046107d9565b6101bb565b005b6100bb6100b636600461081e565b610508565b6040519081526020015b60405180910390f35b6100f16100dc36600461085b565b60046020526000908152604090205460ff1681565b60405190151581526020016100c5565b6100bb61010f36600461085b565b6105e9565b600154610127906001600160a01b031681565b6040516001600160a01b0390911681526020016100c5565b6100f161014d366004610890565b60026020526000908152604090205460ff1681565b6100a6610170366004610890565b61060a565b600054610127906001600160a01b031681565b6100a66101963660046108ab565b61065d565b6100bb6101a936600461085b565b60056020526000908152604090205481565b3360009081526002602052604090205460ff166101f35760405162461bcd60e51b81526004016101ea906108d5565b60405180910390fd5b8160006101ff82610706565b60008181526004602052604090205490915060ff161561036b57600061022485610706565b9050836005600083815260200190815260200160002060008282546102499190610929565b909155505060005460015460405163a9059cbb60e01b81526001600160a01b039283169263a9059cbb92610284929116908890600401610950565b6020604051808303816000875af11580156102a3573d6000803e3d6000fd5b505050506040513d601f19601f820116820180604052508101906102c79190610969565b50600154604051638825756760e01b815260048101839052602481018690526001600160a01b0390911690638825756790604401600060405180830381600087803b15801561031557600080fd5b505af1158015610329573d6000803e3d6000fd5b50505050807ffb81835777f5c1e6fd7d6eb84fa729934ae66884bf599bb714743f575ec7b5778560405161035d919061098b565b60405180910390a250610502565b6003805460018181019092557fc2575a0e9e593c00f959f8c92f12db2869c3395a3b0502d05e2516446f71f85b018290556000828152600460205260408120805460ff19169092179091556103bf85610706565b9050836005600083815260200190815260200160002060008282546103e49190610929565b909155505060005460015460405163a9059cbb60e01b81526001600160a01b039283169263a9059cbb9261041f929116908890600401610950565b6020604051808303816000875af115801561043e573d6000803e3d6000fd5b505050506040513d601f19601f820116820180604052508101906104629190610969565b50600154604051638825756760e01b815260048101839052602481018690526001600160a01b0390911690638825756790604401600060405180830381600087803b1580156104b057600080fd5b505af11580156104c4573d6000803e3d6000fd5b50505050807ffb81835777f5c1e6fd7d6eb84fa729934ae66884bf599bb714743f575ec7b577856040516104f8919061098b565b60405180910390a2505b50505050565b60008061051483610706565b60008181526004602052604090205490915060ff166105755760405162461bcd60e51b815260206004820152601e60248201527f52414841545f41444d494e3a20496e76616c69642050726f6a6563744944000060448201526064016101ea565b6001546040516367bc276d60e11b8152600481018390526001600160a01b039091169063cf784eda90602401602060405180830381865afa1580156105be573d6000803e3d6000fd5b505050506040513d601f19601f820116820180604052508101906105e291906109af565b9392505050565b600381815481106105f957600080fd5b600091825260209091200154905081565b3360009081526002602052604090205460ff166106395760405162461bcd60e51b81526004016101ea906108d5565b6001600160a01b03166000908152600260205260409020805460ff19166001179055565b3360009081526002602052604090205460ff1661068c5760405162461bcd60e51b81526004016101ea906108d5565b600054604051631f132a7360e21b81526001600160a01b0390911690637c4ca9cc906106be9085908590600401610950565b6020604051808303816000875af11580156106dd573d6000803e3d6000fd5b505050506040513d601f19601f8201168201806040525081019061070191906109af565b505050565b60008160405160200161071991906109c8565b604051602081830303815290604052805190602001209050919050565b634e487b7160e01b600052604160045260246000fd5b600082601f83011261075d57600080fd5b813567ffffffffffffffff8082111561077857610778610736565b604051601f8301601f19908116603f011681019082821181831017156107a0576107a0610736565b816040528381528660208588010111156107b957600080fd5b836020870160208301376000602085830101528094505050505092915050565b600080604083850312156107ec57600080fd5b823567ffffffffffffffff81111561080357600080fd5b61080f8582860161074c565b95602094909401359450505050565b60006020828403121561083057600080fd5b813567ffffffffffffffff81111561084757600080fd5b6108538482850161074c565b949350505050565b60006020828403121561086d57600080fd5b5035919050565b80356001600160a01b038116811461088b57600080fd5b919050565b6000602082840312156108a257600080fd5b6105e282610874565b600080604083850312156108be57600080fd5b6108c783610874565b946020939093013593505050565b60208082526034908201527f52414841545f41444d494e3a204f6e6c792041646d696e2063616e20657865636040820152733aba32903a3434b9903a3930b739b0b1ba34b7b760611b606082015260800190565b8082018082111561094a57634e487b7160e01b600052601160045260246000fd5b92915050565b6001600160a01b03929092168252602082015260400190565b60006020828403121561097b57600080fd5b815180151581146105e257600080fd5b9081526040602082018190526003908201526218591960ea1b606082015260800190565b6000602082840312156109c157600080fd5b5051919050565b6000825160005b818110156109e957602081860181015185830152016109cf565b50600092019182525091905056fea2646970667358221220a71ac1523cf80cffc2ff4e8a35e0524db0505a5a10a7f61bdd6561abe2eb74a664736f6c63430008100033",
  "immutableReferences": {},
  "source": "//SPDX-License-Identifier: LGPL-3.0\r\n\r\npragma solidity ^0.8.16;\r\n\r\nimport \"./RahatERC20.sol\";\r\nimport \"./Rahat.sol\";\r\n\r\n/// @title Rahat Admin contract - owns all the tokens initially minted\r\n/// @author Rumsan Associates\r\n/// @notice You can use this contract to manage Rahat tokens and projects\r\n/// @dev All function calls are only executed by contract owner\r\ncontract RahatAdmin {\r\n  using EnumerableSet for EnumerableSet.UintSet;\r\n\r\n  event ProjectERC20BudgetUpdated(\r\n    bytes32 indexed projectId,\r\n    uint256 projectCapital,\r\n    string tag\r\n  );\r\n\r\n  event Minted(bool success);\r\n\r\n  // uint256 public mintData ;\r\n  // bool public mintSuccess =false;\r\n\r\n  RahatERC20 public erc20;\r\n  Rahat public rahatContract;\r\n  mapping(address => bool) public owner;\r\n\r\n  /// @notice list of projects\r\n  bytes32[] public projectId;\r\n\r\n  /// @notice check if projectId exists or not;\r\n  mapping(bytes32 => bool) public projectExists;\r\n\r\n  /// @notice assign budgets to project\r\n  mapping(bytes32 => uint256) public projectERC20Capital;\r\n\r\n  modifier OnlyOwner {\r\n    require(\r\n      owner[msg.sender],\r\n      \"RAHAT_ADMIN: Only Admin can execute this transaction\"\r\n    );\r\n    _;\r\n  }\r\n\r\n  modifier CheckProject(string memory _projectId) {\r\n    bytes32 _id = findHash(_projectId);\r\n    if (projectExists[_id]) {\r\n      _;\r\n    } else {\r\n      projectId.push(_id);\r\n      projectExists[_id] = true;\r\n      _;\r\n    }\r\n  }\r\n\r\n  /// @notice All the supply is allocated to this contract\r\n  /// @dev deploys AidToken and Rahat contract by sending supply to this contract\r\n  constructor(\r\n    RahatERC20 _erc20,\r\n    Rahat _rahatContract,\r\n    uint256 _intitialSupply,\r\n    address _admin\r\n  ) {\r\n    erc20 = _erc20;\r\n    rahatContract = _rahatContract;\r\n    erc20.mintERC20(address(this), _intitialSupply);\r\n\r\n    owner[_admin] = true;\r\n  }\r\n\r\n  /// @notice allocate token to projects\r\n  /// @dev Allocates token to the given projectId, Creates project and transfer tokens to Rahat contract.\r\n  /// @param _projectId Unique Id of Project\r\n  /// @param _projectCapital Budget Allocated to project\r\n  function setProjectBudget_ERC20(\r\n    string memory _projectId,\r\n    uint256 _projectCapital\r\n  ) public OnlyOwner CheckProject(_projectId) {\r\n    bytes32 _id = findHash(_projectId);\r\n    projectERC20Capital[_id] += _projectCapital;\r\n    erc20.transfer(address(rahatContract), _projectCapital);\r\n    rahatContract.updateProjectBudget(_id, _projectCapital);\r\n\r\n    emit ProjectERC20BudgetUpdated(_id, _projectCapital, \"add\");\r\n  }\r\n\r\n  /// @notice get the current balance of project\r\n  /// @param _projectId Unique Id of project\r\n  function getProjecERC20Balance(string memory _projectId)\r\n    public\r\n    view\r\n    returns (uint256 _balance)\r\n  {\r\n    bytes32 _id = findHash(_projectId);\r\n    require(projectExists[_id], \"RAHAT_ADMIN: Invalid ProjectID\");\r\n    return (rahatContract.getProjectBalance(_id));\r\n  }\r\n\r\n  // // TODO:   //SANTOSH - Can't we take default error of transferring?\r\n  // /// @notice take out token from this contract\r\n  // /// @param _amount Amount to withdraw token from this contract\r\n  // function withdrawToken(uint256 _amount) public OnlyOwner {\r\n  // \trequire(erc20.transfer(msg.sender, _amount), 'RAHAT_ADMIN: Error while calling token contract');\r\n  // }\r\n\r\n  /// @notice mint new tokens\r\n  /// @param _address address to send the minted tokens\r\n  /// @param _amount Amount of token to Mint\r\n  function mintERC20(address _address, uint256 _amount) public OnlyOwner {\r\n    erc20.mintERC20(_address, _amount);\r\n  }\r\n\r\n  /// @notice Add an account to the owner role. Restricted to owners.\r\n  /// @param _account address of new owner\r\n  function addOwner(address _account) public OnlyOwner {\r\n    owner[_account] = true;\r\n  }\r\n\r\n  /// @notice generates the hash of the given string\r\n  /// @param _data String of which hash is to be generated\r\n  function findHash(string memory _data) private pure returns (bytes32) {\r\n    return keccak256(abi.encodePacked(_data));\r\n  }\r\n}\r\n",
  "sourcePath": "S:\\Projects\\rahat\\unicef-np\\rahat-contracts\\src\\contracts\\RahatAdmin.sol",
  "compiler": {
    "name": "solc",
    "version": "0.8.16+commit.07a7930e.Emscripten.clang"
  },
  "schemaVersion": "3.4.9",
  "updatedAt": "2022-09-06T09:06:42.923Z",
  "devdoc": {
    "author": "Rumsan Associates",
    "details": "All function calls are only executed by contract owner",
    "kind": "dev",
    "methods": {
      "addOwner(address)": {
        "params": {
          "_account": "address of new owner"
        }
      },
      "constructor": {
        "details": "deploys AidToken and Rahat contract by sending supply to this contract"
      },
      "getProjecERC20Balance(string)": {
        "params": {
          "_projectId": "Unique Id of project"
        }
      },
      "mintERC20(address,uint256)": {
        "params": {
          "_address": "address to send the minted tokens",
          "_amount": "Amount of token to Mint"
        }
      },
      "setProjectBudget_ERC20(string,uint256)": {
        "details": "Allocates token to the given projectId, Creates project and transfer tokens to Rahat contract.",
        "params": {
          "_projectCapital": "Budget Allocated to project",
          "_projectId": "Unique Id of Project"
        }
      }
    },
    "title": "Rahat Admin contract - owns all the tokens initially minted",
    "version": 1
  },
  "userdoc": {
    "kind": "user",
    "methods": {
      "addOwner(address)": {
        "notice": "Add an account to the owner role. Restricted to owners."
      },
      "constructor": {
        "notice": "All the supply is allocated to this contract"
      },
      "getProjecERC20Balance(string)": {
        "notice": "get the current balance of project"
      },
      "mintERC20(address,uint256)": {
        "notice": "mint new tokens"
      },
      "projectERC20Capital(bytes32)": {
        "notice": "assign budgets to project"
      },
      "projectExists(bytes32)": {
        "notice": "check if projectId exists or not;"
      },
      "projectId(uint256)": {
        "notice": "list of projects"
      },
      "setProjectBudget_ERC20(string,uint256)": {
        "notice": "allocate token to projects"
      }
    },
    "notice": "You can use this contract to manage Rahat tokens and projects",
    "version": 1
  }
}