{
  "contractName": "Rahat",
  "abi": [
    {
      "inputs": [
        {
          "internalType": "contract RahatERC20",
          "name": "_erc20",
          "type": "address"
        },
        {
          "internalType": "contract RahatTriggerResponse",
          "name": "_triggerResponse",
          "type": "address"
        },
        {
          "internalType": "address",
          "name": "_admin",
          "type": "address"
        }
      ],
      "stateMutability": "nonpayable",
      "type": "constructor"
    },
    {
      "anonymous": false,
      "inputs": [
        {
          "indexed": true,
          "internalType": "address",
          "name": "vendor",
          "type": "address"
        },
        {
          "indexed": true,
          "internalType": "uint256",
          "name": "beneficiary",
          "type": "uint256"
        },
        {
          "indexed": false,
          "internalType": "uint256",
          "name": "amount",
          "type": "uint256"
        }
      ],
      "name": "ClaimAcquiredERC20",
      "type": "event"
    },
    {
      "anonymous": false,
      "inputs": [
        {
          "indexed": true,
          "internalType": "address",
          "name": "vendor",
          "type": "address"
        },
        {
          "indexed": true,
          "internalType": "uint256",
          "name": "phone",
          "type": "uint256"
        },
        {
          "indexed": false,
          "internalType": "uint256",
          "name": "amount",
          "type": "uint256"
        }
      ],
      "name": "ClaimApproved",
      "type": "event"
    },
    {
      "anonymous": false,
      "inputs": [
        {
          "indexed": true,
          "internalType": "address",
          "name": "vendor",
          "type": "address"
        },
        {
          "indexed": true,
          "internalType": "uint256",
          "name": "beneficiary",
          "type": "uint256"
        },
        {
          "indexed": false,
          "internalType": "uint256",
          "name": "amount",
          "type": "uint256"
        }
      ],
      "name": "ClaimedERC20",
      "type": "event"
    },
    {
      "anonymous": false,
      "inputs": [
        {
          "indexed": false,
          "internalType": "bytes",
          "name": "signature",
          "type": "bytes"
        },
        {
          "indexed": false,
          "internalType": "bytes32",
          "name": "digest",
          "type": "bytes32"
        },
        {
          "indexed": false,
          "internalType": "address",
          "name": "expectedSigner",
          "type": "address"
        },
        {
          "indexed": false,
          "internalType": "address",
          "name": "recoveredSigner",
          "type": "address"
        }
      ],
      "name": "InvalidSignature",
      "type": "event"
    },
    {
      "anonymous": false,
      "inputs": [
        {
          "indexed": true,
          "internalType": "bytes32",
          "name": "projectId",
          "type": "bytes32"
        },
        {
          "indexed": true,
          "internalType": "uint256",
          "name": "phone",
          "type": "uint256"
        },
        {
          "indexed": false,
          "internalType": "uint256",
          "name": "amount",
          "type": "uint256"
        }
      ],
      "name": "IssuedERC20",
      "type": "event"
    },
    {
      "anonymous": false,
      "inputs": [
        {
          "indexed": true,
          "internalType": "bytes32",
          "name": "role",
          "type": "bytes32"
        },
        {
          "indexed": true,
          "internalType": "bytes32",
          "name": "previousAdminRole",
          "type": "bytes32"
        },
        {
          "indexed": true,
          "internalType": "bytes32",
          "name": "newAdminRole",
          "type": "bytes32"
        }
      ],
      "name": "RoleAdminChanged",
      "type": "event"
    },
    {
      "anonymous": false,
      "inputs": [
        {
          "indexed": true,
          "internalType": "bytes32",
          "name": "role",
          "type": "bytes32"
        },
        {
          "indexed": true,
          "internalType": "address",
          "name": "account",
          "type": "address"
        },
        {
          "indexed": true,
          "internalType": "address",
          "name": "sender",
          "type": "address"
        }
      ],
      "name": "RoleGranted",
      "type": "event"
    },
    {
      "anonymous": false,
      "inputs": [
        {
          "indexed": true,
          "internalType": "bytes32",
          "name": "role",
          "type": "bytes32"
        },
        {
          "indexed": true,
          "internalType": "address",
          "name": "account",
          "type": "address"
        },
        {
          "indexed": true,
          "internalType": "address",
          "name": "sender",
          "type": "address"
        }
      ],
      "name": "RoleRevoked",
      "type": "event"
    },
    {
      "inputs": [],
      "name": "CREATE_CLAIM",
      "outputs": [
        {
          "internalType": "bytes32",
          "name": "",
          "type": "bytes32"
        }
      ],
      "stateMutability": "view",
      "type": "function"
    },
    {
      "inputs": [],
      "name": "DEFAULT_ADMIN_ROLE",
      "outputs": [
        {
          "internalType": "bytes32",
          "name": "",
          "type": "bytes32"
        }
      ],
      "stateMutability": "view",
      "type": "function"
    },
    {
      "inputs": [],
      "name": "GET_TOKENS_FROM_CLAIM",
      "outputs": [
        {
          "internalType": "bytes32",
          "name": "",
          "type": "bytes32"
        }
      ],
      "stateMutability": "view",
      "type": "function"
    },
    {
      "inputs": [],
      "name": "ISSUE_TOKEN",
      "outputs": [
        {
          "internalType": "bytes32",
          "name": "",
          "type": "bytes32"
        }
      ],
      "stateMutability": "view",
      "type": "function"
    },
    {
      "inputs": [],
      "name": "MANAGER_ROLE",
      "outputs": [
        {
          "internalType": "bytes32",
          "name": "",
          "type": "bytes32"
        }
      ],
      "stateMutability": "view",
      "type": "function"
    },
    {
      "inputs": [],
      "name": "MOBILIZER_ROLE",
      "outputs": [
        {
          "internalType": "bytes32",
          "name": "",
          "type": "bytes32"
        }
      ],
      "stateMutability": "view",
      "type": "function"
    },
    {
      "inputs": [],
      "name": "SERVER_ROLE",
      "outputs": [
        {
          "internalType": "bytes32",
          "name": "",
          "type": "bytes32"
        }
      ],
      "stateMutability": "view",
      "type": "function"
    },
    {
      "inputs": [],
      "name": "VENDOR_ROLE",
      "outputs": [
        {
          "internalType": "bytes32",
          "name": "",
          "type": "bytes32"
        }
      ],
      "stateMutability": "view",
      "type": "function"
    },
    {
      "inputs": [],
      "name": "erc20",
      "outputs": [
        {
          "internalType": "contract RahatERC20",
          "name": "",
          "type": "address"
        }
      ],
      "stateMutability": "view",
      "type": "function"
    },
    {
      "inputs": [
        {
          "internalType": "uint256",
          "name": "",
          "type": "uint256"
        }
      ],
      "name": "erc20Balance",
      "outputs": [
        {
          "internalType": "uint256",
          "name": "",
          "type": "uint256"
        }
      ],
      "stateMutability": "view",
      "type": "function"
    },
    {
      "inputs": [
        {
          "internalType": "uint256",
          "name": "",
          "type": "uint256"
        }
      ],
      "name": "erc20Issued",
      "outputs": [
        {
          "internalType": "uint256",
          "name": "",
          "type": "uint256"
        }
      ],
      "stateMutability": "view",
      "type": "function"
    },
    {
      "inputs": [
        {
          "internalType": "address",
          "name": "",
          "type": "address"
        }
      ],
      "name": "erc20IssuedBy",
      "outputs": [
        {
          "internalType": "uint256",
          "name": "",
          "type": "uint256"
        }
      ],
      "stateMutability": "view",
      "type": "function"
    },
    {
      "inputs": [
        {
          "internalType": "bytes32",
          "name": "role",
          "type": "bytes32"
        }
      ],
      "name": "getRoleAdmin",
      "outputs": [
        {
          "internalType": "bytes32",
          "name": "",
          "type": "bytes32"
        }
      ],
      "stateMutability": "view",
      "type": "function"
    },
    {
      "inputs": [
        {
          "internalType": "bytes32",
          "name": "role",
          "type": "bytes32"
        },
        {
          "internalType": "address",
          "name": "account",
          "type": "address"
        }
      ],
      "name": "grantRole",
      "outputs": [],
      "stateMutability": "nonpayable",
      "type": "function"
    },
    {
      "inputs": [
        {
          "internalType": "bytes32",
          "name": "role",
          "type": "bytes32"
        },
        {
          "internalType": "address",
          "name": "account",
          "type": "address"
        }
      ],
      "name": "hasRole",
      "outputs": [
        {
          "internalType": "bool",
          "name": "",
          "type": "bool"
        }
      ],
      "stateMutability": "view",
      "type": "function"
    },
    {
      "inputs": [
        {
          "internalType": "uint256",
          "name": "",
          "type": "uint256"
        }
      ],
      "name": "isBanked",
      "outputs": [
        {
          "internalType": "bool",
          "name": "",
          "type": "bool"
        }
      ],
      "stateMutability": "view",
      "type": "function"
    },
    {
      "inputs": [
        {
          "internalType": "bytes[]",
          "name": "data",
          "type": "bytes[]"
        }
      ],
      "name": "multicall",
      "outputs": [
        {
          "internalType": "bytes[]",
          "name": "results",
          "type": "bytes[]"
        }
      ],
      "stateMutability": "nonpayable",
      "type": "function"
    },
    {
      "inputs": [
        {
          "internalType": "address",
          "name": "",
          "type": "address"
        }
      ],
      "name": "nonces",
      "outputs": [
        {
          "internalType": "uint256",
          "name": "",
          "type": "uint256"
        }
      ],
      "stateMutability": "view",
      "type": "function"
    },
    {
      "inputs": [
        {
          "internalType": "address",
          "name": "",
          "type": "address"
        },
        {
          "internalType": "bytes32",
          "name": "",
          "type": "bytes32"
        }
      ],
      "name": "recentERC20Claims",
      "outputs": [
        {
          "internalType": "uint256",
          "name": "amount",
          "type": "uint256"
        },
        {
          "internalType": "bytes32",
          "name": "otpHash",
          "type": "bytes32"
        },
        {
          "internalType": "bool",
          "name": "isReleased",
          "type": "bool"
        },
        {
          "internalType": "uint256",
          "name": "date",
          "type": "uint256"
        }
      ],
      "stateMutability": "view",
      "type": "function"
    },
    {
      "inputs": [
        {
          "internalType": "bytes32",
          "name": "role",
          "type": "bytes32"
        },
        {
          "internalType": "address",
          "name": "account",
          "type": "address"
        }
      ],
      "name": "renounceRole",
      "outputs": [],
      "stateMutability": "nonpayable",
      "type": "function"
    },
    {
      "inputs": [
        {
          "internalType": "bytes32",
          "name": "role",
          "type": "bytes32"
        },
        {
          "internalType": "address",
          "name": "account",
          "type": "address"
        }
      ],
      "name": "revokeRole",
      "outputs": [],
      "stateMutability": "nonpayable",
      "type": "function"
    },
    {
      "inputs": [],
      "name": "triggerResponse",
      "outputs": [
        {
          "internalType": "contract RahatTriggerResponse",
          "name": "",
          "type": "address"
        }
      ],
      "stateMutability": "view",
      "type": "function"
    },
    {
      "inputs": [
        {
          "internalType": "bytes4",
          "name": "interfaceId",
          "type": "bytes4"
        }
      ],
      "name": "supportsInterface",
      "outputs": [
        {
          "internalType": "bool",
          "name": "",
          "type": "bool"
        }
      ],
      "stateMutability": "view",
      "type": "function"
    },
    {
      "inputs": [
        {
          "internalType": "address",
          "name": "_account",
          "type": "address"
        }
      ],
      "name": "addAdmin",
      "outputs": [],
      "stateMutability": "nonpayable",
      "type": "function"
    },
    {
      "inputs": [
        {
          "internalType": "address",
          "name": "_account",
          "type": "address"
        }
      ],
      "name": "isAdmin",
      "outputs": [
        {
          "internalType": "bool",
          "name": "",
          "type": "bool"
        }
      ],
      "stateMutability": "view",
      "type": "function"
    },
    {
      "inputs": [
        {
          "internalType": "address",
          "name": "_account",
          "type": "address"
        }
      ],
      "name": "addServer",
      "outputs": [],
      "stateMutability": "nonpayable",
      "type": "function"
    },
    {
      "inputs": [
        {
          "internalType": "address",
          "name": "_account",
          "type": "address"
        }
      ],
      "name": "addVendor",
      "outputs": [],
      "stateMutability": "nonpayable",
      "type": "function"
    },
    {
      "inputs": [
        {
          "internalType": "address",
          "name": "_account",
          "type": "address"
        }
      ],
      "name": "isVendor",
      "outputs": [
        {
          "internalType": "bool",
          "name": "",
          "type": "bool"
        }
      ],
      "stateMutability": "view",
      "type": "function"
    },
    {
      "inputs": [
        {
          "internalType": "address",
          "name": "_account",
          "type": "address"
        },
        {
          "internalType": "string",
          "name": "_projectId",
          "type": "string"
        }
      ],
      "name": "addMobilizer",
      "outputs": [],
      "stateMutability": "nonpayable",
      "type": "function"
    },
    {
      "inputs": [
        {
          "internalType": "uint256",
          "name": "_phone",
          "type": "uint256"
        },
        {
          "internalType": "bool",
          "name": "_isBanked",
          "type": "bool"
        }
      ],
      "name": "setAsBankedBeneficiary",
      "outputs": [],
      "stateMutability": "nonpayable",
      "type": "function"
    },
    {
      "inputs": [
        {
          "internalType": "uint256",
          "name": "_phone",
          "type": "uint256"
        },
        {
          "internalType": "bytes32",
          "name": "_projectId",
          "type": "bytes32"
        }
      ],
      "name": "suspendBeneficiary",
      "outputs": [],
      "stateMutability": "nonpayable",
      "type": "function"
    },
    {
      "inputs": [
        {
          "internalType": "bytes32",
          "name": "_projectId",
          "type": "bytes32"
        },
        {
          "internalType": "uint256",
          "name": "_projectCapital",
          "type": "uint256"
        }
      ],
      "name": "updateProjectBudget",
      "outputs": [],
      "stateMutability": "nonpayable",
      "type": "function"
    },
    {
      "inputs": [
        {
          "internalType": "bytes32",
          "name": "_projectId",
          "type": "bytes32"
        }
      ],
      "name": "getProjectBalance",
      "outputs": [
        {
          "internalType": "uint256",
          "name": "_balance",
          "type": "uint256"
        }
      ],
      "stateMutability": "view",
      "type": "function"
    },
    {
      "inputs": [
        {
          "internalType": "string",
          "name": "_projectId",
          "type": "string"
        },
        {
          "internalType": "uint256",
          "name": "_phone",
          "type": "uint256"
        },
        {
          "internalType": "uint256",
          "name": "_amount",
          "type": "uint256"
        }
      ],
      "name": "issueERC20ToBeneficiary",
      "outputs": [],
      "stateMutability": "nonpayable",
      "type": "function"
    },
    {
      "inputs": [
        {
          "internalType": "uint256",
          "name": "_phone",
          "type": "uint256"
        },
        {
          "internalType": "uint256",
          "name": "_tokens",
          "type": "uint256"
        }
      ],
      "name": "createERC20Claim",
      "outputs": [],
      "stateMutability": "nonpayable",
      "type": "function"
    },
    {
      "inputs": [
        {
          "internalType": "address",
          "name": "_vendor",
          "type": "address"
        },
        {
          "internalType": "uint256",
          "name": "_phone",
          "type": "uint256"
        },
        {
          "internalType": "bytes32",
          "name": "_otpHash",
          "type": "bytes32"
        },
        {
          "internalType": "uint256",
          "name": "_timeToLive",
          "type": "uint256"
        }
      ],
      "name": "approveERC20Claim",
      "outputs": [],
      "stateMutability": "nonpayable",
      "type": "function"
    },
    {
      "inputs": [
        {
          "internalType": "uint256",
          "name": "_phone",
          "type": "uint256"
        },
        {
          "internalType": "string",
          "name": "_otp",
          "type": "string"
        }
      ],
      "name": "getERC20FromClaim",
      "outputs": [],
      "stateMutability": "nonpayable",
      "type": "function"
    },
    {
      "inputs": [
        {
          "internalType": "uint256",
          "name": "_phone",
          "type": "uint256"
        },
        {
          "internalType": "address",
          "name": "_address",
          "type": "address"
        },
        {
          "internalType": "uint256",
          "name": "_amount",
          "type": "uint256"
        }
      ],
      "name": "transferTokenToVendorByAdmin",
      "outputs": [],
      "stateMutability": "nonpayable",
      "type": "function"
    },
    {
      "inputs": [
        {
          "internalType": "uint256",
          "name": "_data",
          "type": "uint256"
        }
      ],
      "name": "findHash",
      "outputs": [
        {
          "internalType": "bytes32",
          "name": "",
          "type": "bytes32"
        }
      ],
      "stateMutability": "pure",
      "type": "function"
    },
    {
      "inputs": [
        {
          "internalType": "string",
          "name": "_data",
          "type": "string"
        }
      ],
      "name": "findHash",
      "outputs": [
        {
          "internalType": "bytes32",
          "name": "",
          "type": "bytes32"
        }
      ],
      "stateMutability": "pure",
      "type": "function"
    },
    {
      "inputs": [
        {
          "internalType": "uint256[]",
          "name": "_array",
          "type": "uint256[]"
        }
      ],
      "name": "getArraySum",
      "outputs": [
        {
          "internalType": "uint256",
          "name": "sum",
          "type": "uint256"
        }
      ],
      "stateMutability": "pure",
      "type": "function"
    }
  ],
  "bytecode": "0x60806040523480156200001157600080fd5b5060405162002d0738038062002d07833981016040819052620000349162000487565b62000041600033620000e5565b6200004e600082620000e5565b6200006a60008051602062002ce78339815191526000620000f5565b620000977f0aaf57387812c7f832412470a57567b5648a930069be49aa9c98d04f88520d346000620000f5565b620000b260008051602062002ce78339815191523362000140565b50600280546001600160a01b039384166001600160a01b0319918216179091556003805492909316911617905562000643565b620000f182826200016f565b5050565b600082815260208190526040808220600101805490849055905190918391839186917fbd79b86ffe0ab8e8776151514217cd7cacd52c909f66475c3af44e129f0b00ff9190a4505050565b6000828152602081905260409020600101546200015e8133620001f7565b6200016a83836200016f565b505050565b6200017b828262000283565b620000f1576000828152602081815260408083206001600160a01b03851684529091529020805460ff19166001179055620001b33390565b6001600160a01b0316816001600160a01b0316837f2f8788117e7eff1d82e926ec794901d17c78024a50270940304540a733656f0d60405160405180910390a45050565b62000203828262000283565b620000f15762000229816001600160a01b03166014620002ae60201b620017461760201c565b6200023f83602062001746620002ae821b17811c565b6040516020016200025292919062000501565b60408051601f198184030181529082905262461bcd60e51b82526200027a916004016200057a565b60405180910390fd5b6000828152602081815260408083206001600160a01b038516845290915290205460ff165b92915050565b60606000620002bf836002620005c5565b620002cc906002620005e7565b6001600160401b03811115620002e657620002e6620005fd565b6040519080825280601f01601f19166020018201604052801562000311576020820181803683370190505b509050600360fc1b816000815181106200032f576200032f62000613565b60200101906001600160f81b031916908160001a905350600f60fb1b8160018151811062000361576200036162000613565b60200101906001600160f81b031916908160001a905350600062000387846002620005c5565b62000394906001620005e7565b90505b600181111562000416576f181899199a1a9b1b9c1cb0b131b232b360811b85600f1660108110620003cc57620003cc62000613565b1a60f81b828281518110620003e557620003e562000613565b60200101906001600160f81b031916908160001a90535060049490941c936200040e8162000629565b905062000397565b508315620004675760405162461bcd60e51b815260206004820181905260248201527f537472696e67733a20686578206c656e67746820696e73756666696369656e7460448201526064016200027a565b9392505050565b6001600160a01b03811681146200048457600080fd5b50565b6000806000606084860312156200049d57600080fd5b8351620004aa816200046e565b6020850151909350620004bd816200046e565b6040850151909250620004d0816200046e565b809150509250925092565b60005b83811015620004f8578181015183820152602001620004de565b50506000910152565b7f416363657373436f6e74726f6c3a206163636f756e74200000000000000000008152600083516200053b816017850160208801620004db565b7001034b99036b4b9b9b4b733903937b6329607d1b60179184019182015283516200056e816028840160208801620004db565b01602801949350505050565b60208152600082518060208401526200059b816040850160208701620004db565b601f01601f19169190910160400192915050565b634e487b7160e01b600052601160045260246000fd5b6000816000190483118215151615620005e257620005e2620005af565b500290565b80820180821115620002a857620002a8620005af565b634e487b7160e01b600052604160045260246000fd5b634e487b7160e01b600052603260045260246000fd5b6000816200063b576200063b620005af565b506000190190565b61269480620006536000396000f3fe608060405234801561001057600080fd5b50600436106102135760003560e01c80635cbd99d41161012657806394343cd2116100b357806394343cd2146105115780639ea6935014610538578063a217fddf1461054b578063ac9650d814610553578063c0d955d614610573578063cf784eda14610586578063d1e67167146105a6578063d547741f14610612578063eaad46f514610625578063ec87621c14610638578063ee54d54f1461065f57600080fd5b80635cbd99d41461042057806364a2f7d914610433578063704802751461045657806370c7510714610469578063785e9e861461047c5780637ecebe001461048f57806388257567146104af5780638bbab5c7146104c257806391d14854146104e9578063926a694d146104fc57600080fd5b80632f2ff15d116101a45780632f2ff15d1461033b5780633098b74b1461034e578063351c3d0b1461036157806336568abe1461038157806337d027b8146103945780633fc16810146103bf57806345e0f753146103d2578063494101ff146103e55780634c91b44e146103f8578063546fcaa41461040d57600080fd5b806301ffc9a714610218578063055ee0701461024057806318cf28341461026e578063237c9db3146102835780632384e105146102a3578063248a9ca3146102ca57806324d7806c146102ed57806327fa7a20146103005780632aef0c30146103155780632d41d55914610328575b600080fd5b61022b610226366004611ded565b610672565b60405190151581526020015b60405180910390f35b61026061024e366004611e17565b60046020526000908152604090205481565b604051908152602001610237565b61026060008051602061261883398151915281565b610260610291366004611e4c565b600c6020526000908152604090205481565b6102607fcfa8166f1bb1b8818c3767a9ffd776afbbe3409a468070bb860831e01b56549981565b6102606102d8366004611e17565b60009081526020819052604090206001015490565b61022b6102fb366004611e4c565b610683565b61031361030e366004611f1c565b61068f565b005b610313610323366004611f62565b610941565b610313610336366004611f84565b6109e7565b610313610349366004611fbd565b610cce565b61026061035c366004611fe9565b610cf9565b61026061036f366004611e17565b60056020526000908152604090205481565b61031361038f366004611fbd565b610d45565b6003546103a7906001600160a01b031681565b6040516001600160a01b039091168152602001610237565b6103136103cd36600461209c565b610dc3565b6103136103e0366004611e4c565b610e0a565b6102606103f3366004611e17565b610e4c565b6102606000805160206125f883398151915281565b61031361041b3660046120cc565b610e84565b61031361042e366004611e4c565b610fcd565b61022b610441366004611e17565b60066020526000908152604090205460ff1681565b610313610464366004611e4c565b61100c565b610260610477366004612101565b61103e565b6002546103a7906001600160a01b031681565b61026061049d366004611e4c565b60016020526000908152604090205481565b6103136104bd366004611f62565b611051565b6102607f043620c1e1c33ecf60d9dadc62571b96554338b68ef3636e715e52a286bea92e81565b61022b6104f7366004611fbd565b611078565b6102606000805160206125d883398151915281565b6102607f8ff5d84bbad5f252f2ee1916646e221e55645205d2f803ebe6a7d6ba8fa4185d81565b610313610546366004611f62565b6110a1565b610260600081565b610566610561366004612135565b611362565b60405161023791906121f9565b61031361058136600461225b565b611456565b610260610594366004611e17565b60009081526009602052604090205490565b6105ec6105b43660046122a8565b600d60209081526000928352604080842090915290825290208054600182015460028301546003909301549192909160ff9091169084565b604080519485526020850193909352901515918301919091526060820152608001610237565b610313610620366004611fbd565b61169c565b6103136106333660046122d2565b6116c2565b6102607faf290d8680820aad922855f39b306097b20e28774d6c1ad35a20325630c3a02c81565b61022b61066d366004611e4c565b61172c565b600061067d826118e8565b92915050565b600061067d8183611078565b81600061069b82610e4c565b600083815260056020526040812054919250036106d35760405162461bcd60e51b81526004016106ca90612309565b60405180910390fd5b6106eb6000805160206125d883398151915233611078565b6107075760405162461bcd60e51b81526004016106ca90612356565b600061071285610e4c565b336000908152600d60209081526040808320848452909152902060028101549192509060ff166107905760405162461bcd60e51b815260206004820152602360248201527f52414841543a20436c61696d20686173206e6f74206265656e2072656c65617360448201526232b21760e91b60648201526084016106ca565b42816003015410156107ee5760405162461bcd60e51b815260206004820152602160248201527f52414841543a20436c61696d2068617320616c726561647920657870697265646044820152601760f91b60648201526084016106ca565b60006107f98661103e565b336000908152600d6020908152604080832087845290915290206001015490915081146108645760405162461bcd60e51b81526020600482015260196024820152782920a420aa1d1027aa28103234b2103737ba1036b0ba31b41760391b60448201526064016106ca565b61087287836000015461191d565b81546002808401805460ff19169055600080855560038501555460405163a9059cbb60e01b81526001600160a01b039091169063a9059cbb906108bb90339085906004016123a0565b6020604051808303816000875af11580156108da573d6000803e3d6000fd5b505050506040513d601f19601f820116820180604052508101906108fe91906123b9565b50604051818152889033907fe4de809bf00bba73c562150b76ba81e5af05183458342bfdb09a7c9e303813e5906020015b60405180910390a35050505050505050565b61094c600033611078565b6109685760405162461bcd60e51b81526004016106ca906123d6565b81600061097482610e4c565b600083815260056020526040812054919250036109a35760405162461bcd60e51b81526004016106ca90612309565b600084815260056020908152604080832054868452600990925282208054919283926109d0908490612423565b909155506109e09050858261191d565b5050505050565b8260006109f382610e4c565b60008381526005602052604081205491925003610a225760405162461bcd60e51b81526004016106ca90612309565b610a3a60008051602061261883398151915233611078565b610a995760405162461bcd60e51b815260206004820152602a60248201527f52414841543a2053656e646572206d75737420626520616e20617574686f72696044820152693d32b21039b2b93b32b960b11b60648201526084016106ca565b6000610aa486610e4c565b6001600160a01b0388166000908152600d6020908152604080832084845290915281206003810154929350919003610b2c5760405162461bcd60e51b815260206004820152602560248201527f52414841543a20436c61696d20686173206e6f74206265656e2063726561746560448201526419081e595d60da1b60648201526084016106ca565b62015180851115610b975760405162461bcd60e51b815260206004820152602f60248201527f52414841543a54696d6520546f204c6976652073686f756c64206265206c657360448201526e73207468616e20323420686f75727360881b60648201526084016106ca565b6003810154610ba99062015180612423565b421115610c045760405162461bcd60e51b815260206004820152602360248201527f52414841543a20436c61696d206973206f6c646572207468616e20323420686f60448201526275727360e81b60648201526084016106ca565b600281015460ff1615610c695760405162461bcd60e51b815260206004820152602760248201527f52414841543a20436c61696d2068617320616c7265616479206265656e2072656044820152663632b0b9b2b21760c91b60648201526084016106ca565b600180820187905560028201805460ff19169091179055610c8a8542612423565b6003820155805460405190815287906001600160a01b038a16907f05ca75b0d90f1dd046ad3b8c1ec4a461042c3d33518b9b67d9feafc7d8d3c6cf9060200161092f565b600082815260208190526040902060010154610cea813361198a565b610cf483836119ee565b505050565b6000805b8251811015610d3f57828181518110610d1857610d18612436565b602002602001015182610d2b9190612423565b915080610d378161244c565b915050610cfd565b50919050565b6001600160a01b0381163314610db55760405162461bcd60e51b815260206004820152602f60248201527f416363657373436f6e74726f6c3a2063616e206f6e6c792072656e6f756e636560448201526e103937b632b9903337b91039b2b63360891b60648201526084016106ca565b610dbf8282611a72565b5050565b610dce600033611078565b610dea5760405162461bcd60e51b81526004016106ca906123d6565b600091825260066020526040909120805460ff1916911515919091179055565b610e15600033611078565b610e315760405162461bcd60e51b81526004016106ca906123d6565b610e496000805160206125d883398151915282610cce565b50565b6000610e5782611ad7565b604051602001610e679190612465565b604051602081830303815290604052805190602001209050919050565b826000610e9082610e4c565b60008381526005602052604081205491925003610ebf5760405162461bcd60e51b81526004016106ca90612309565b610eca600033611078565b610ee65760405162461bcd60e51b81526004016106ca906123d6565b610eef8461172c565b610f465760405162461bcd60e51b815260206004820152602260248201527f5472616e7366657220746f206d7573742062652076656e646f72206164647265604482015261737360f01b60648201526084016106ca565b610f50858461191d565b60025460405163a9059cbb60e01b81526001600160a01b039091169063a9059cbb90610f8290879087906004016123a0565b6020604051808303816000875af1158015610fa1573d6000803e3d6000fd5b505050506040513d601f19601f82011682018060405250810190610fc591906123b9565b505050505050565b610fd8600033611078565b610ff45760405162461bcd60e51b81526004016106ca906123d6565b610e4960008051602061261883398151915282610cce565b611017600033611078565b6110335760405162461bcd60e51b81526004016106ca906123d6565b610e49600082610cce565b600081604051602001610e679190612465565b6000828152600960205260408120805483929061106f908490612423565b90915550505050565b6000918252602082815260408084206001600160a01b0393909316845291905290205460ff1690565b8160006110ad82610e4c565b600083815260056020526040812054919250036110dc5760405162461bcd60e51b81526004016106ca90612309565b6110f46000805160206125d883398151915233611078565b6111105760405162461bcd60e51b81526004016106ca90612356565b600360009054906101000a90046001600160a01b03166001600160a01b031663b8f7a6656040518163ffffffff1660e01b8152600401602060405180830381865afa158015611163573d6000803e3d6000fd5b505050506040513d601f19601f8201168201806040525081019061118791906123b9565b6111f95760405162461bcd60e51b815260206004820152603f60248201527f5468697320726573706f6e736520686173206e6f74206265656e20616374697660448201527f61746564207965742c20706c6561736520636f6e746163742061646d696e2e0060648201526084016106ca565b60008481526006602052604090205460ff16156112645760405162461bcd60e51b8152602060048201526024808201527f43616e6e6f7420636c61696d2066726f6d2062616e6b65642062656e656669636044820152636961727960e01b60648201526084016106ca565b600061126f85610e4c565b6000868152600560205260409020549091508411156112f65760405162461bcd60e51b815260206004820152603c60248201527f52414841543a20416d6f756e742072657175657374656420697320677265617460448201527f6572207468616e2062656e65666963696172792062616c616e63652e0000000060648201526084016106ca565b336000908152600d6020908152604080832084845282529182902060028101805460ff191690558681554260038201559151868152879132917f79ef0b2282f5e45718748b37d5a89727c1544ad2f78b126efa97c32ac1f1d232910160405180910390a3505050505050565b6060816001600160401b0381111561137c5761137c611e67565b6040519080825280602002602001820160405280156113af57816020015b606081526020019060019003908161139a5790505b50905060005b8281101561144f5761141f308585848181106113d3576113d3612436565b90506020028101906113e59190612481565b8080601f016020809104026020016040519081016040528093929190818152602001838380828437600092019190915250611bdf92505050565b82828151811061143157611431612436565b602002602001018190525080806114479061244c565b9150506113b5565b5092915050565b611461600033611078565b8061147f575061147f6000805160206125f883398151915233611078565b6114ea5760405162461bcd60e51b815260206004820152603660248201527f52414841543a2053656e646572204d757374206265206120726567697374657260448201527532b21020b236b4b71027b91026b7b134b634bd32b91760511b60648201526084016106ca565b60006114f58461103e565b905061150f6000805160206125f883398151915233611078565b1561158c576000818152600a6020526040902061152c9033611c04565b61158c5760405162461bcd60e51b815260206004820152602b60248201527f6d6f62696c697a6572206973206e6f74206f6e626f617264656420746f20676960448201526a1d995b881c1c9bda9958dd60aa1b60648201526084016106ca565b336000908152600c6020526040812080548492906115ab908490612423565b909155505060008181526009602052604090205482111561162d5760405162461bcd60e51b815260206004820152603660248201527f52414841543a20416d6f756e742069732067726561746572207468616e2072656044820152751b585a5b9a5b99c8141c9bda9958dd08109d5919d95d60521b60648201526084016106ca565b6000818152600960205260408120805484929061164b9084906124ce565b9091555061165b90508383611c26565b82817f707197b34e0edb88707154f8a8ea9f3c8d891eb60a28dac25cc79bf23c3aa5c18460405161168e91815260200190565b60405180910390a350505050565b6000828152602081905260409020600101546116b8813361198a565b610cf48383611a72565b6116cd600033611078565b6116e95760405162461bcd60e51b81526004016106ca906123d6565b60006116f48261103e565b905061170e6000805160206125f883398151915284610cce565b6000818152600a602052604090206117269084611c7c565b50505050565b600061067d6000805160206125d883398151915283611078565b606060006117558360026124e1565b611760906002612423565b6001600160401b0381111561177757611777611e67565b6040519080825280601f01601f1916602001820160405280156117a1576020820181803683370190505b509050600360fc1b816000815181106117bc576117bc612436565b60200101906001600160f81b031916908160001a905350600f60fb1b816001815181106117eb576117eb612436565b60200101906001600160f81b031916908160001a905350600061180f8460026124e1565b61181a906001612423565b90505b6001811115611892576f181899199a1a9b1b9c1cb0b131b232b360811b85600f166010811061184e5761184e612436565b1a60f81b82828151811061186457611864612436565b60200101906001600160f81b031916908160001a90535060049490941c9361188b81612500565b905061181d565b5083156118e15760405162461bcd60e51b815260206004820181905260248201527f537472696e67733a20686578206c656e67746820696e73756666696369656e7460448201526064016106ca565b9392505050565b60006001600160e01b03198216637965db0b60e01b148061067d57506301ffc9a760e01b6001600160e01b031983161461067d565b81600061192982610e4c565b600083815260056020526040812054919250036119585760405162461bcd60e51b81526004016106ca90612309565b6000848152600560205260409020546119729084906124ce565b60009485526005602052604090942093909355505050565b6119948282611078565b610dbf576119ac816001600160a01b03166014611746565b6119b7836020611746565b6040516020016119c8929190612517565b60408051601f198184030181529082905262461bcd60e51b82526106ca91600401612586565b6119f88282611078565b610dbf576000828152602081815260408083206001600160a01b03851684529091529020805460ff19166001179055611a2e3390565b6001600160a01b0316816001600160a01b0316837f2f8788117e7eff1d82e926ec794901d17c78024a50270940304540a733656f0d60405160405180910390a45050565b611a7c8282611078565b15610dbf576000828152602081815260408083206001600160a01b0385168085529252808320805460ff1916905551339285917ff6391f5c32d9c69d2a47ea670b442974b53935d1edc7fd64eb21e047a839171b9190a45050565b606081600003611afe5750506040805180820190915260018152600360fc1b602082015290565b8160005b8115611b285780611b128161244c565b9150611b219050600a836125af565b9150611b02565b6000816001600160401b03811115611b4257611b42611e67565b6040519080825280601f01601f191660200182016040528015611b6c576020820181803683370190505b5090505b8415611bd757611b816001836124ce565b9150611b8e600a866125c3565b611b99906030612423565b60f81b818381518110611bae57611bae612436565b60200101906001600160f81b031916908160001a905350611bd0600a866125af565b9450611b70565b949350505050565b60606118e1838360405180606001604052806027815260200161263860279139611c91565b6001600160a01b038116600090815260018301602052604081205415156118e1565b600082815260056020526040902054611c40908290612423565b600083815260056020908152604080832093909355600490522054611c66908290612423565b6000928352600460205260409092209190915550565b60006118e1836001600160a01b038416611d65565b6060833b611cf05760405162461bcd60e51b815260206004820152602660248201527f416464726573733a2064656c65676174652063616c6c20746f206e6f6e2d636f6044820152651b9d1c9858dd60d21b60648201526084016106ca565b600080856001600160a01b031685604051611d0b9190612465565b600060405180830381855af49150503d8060008114611d46576040519150601f19603f3d011682016040523d82523d6000602084013e611d4b565b606091505b5091509150611d5b828286611db4565b9695505050505050565b6000818152600183016020526040812054611dac5750815460018181018455600084815260208082209093018490558454848252828601909352604090209190915561067d565b50600061067d565b60608315611dc35750816118e1565b825115611dd35782518084602001fd5b8160405162461bcd60e51b81526004016106ca9190612586565b600060208284031215611dff57600080fd5b81356001600160e01b0319811681146118e157600080fd5b600060208284031215611e2957600080fd5b5035919050565b80356001600160a01b0381168114611e4757600080fd5b919050565b600060208284031215611e5e57600080fd5b6118e182611e30565b634e487b7160e01b600052604160045260246000fd5b604051601f8201601f191681016001600160401b0381118282101715611ea557611ea5611e67565b604052919050565b600082601f830112611ebe57600080fd5b81356001600160401b03811115611ed757611ed7611e67565b611eea601f8201601f1916602001611e7d565b818152846020838601011115611eff57600080fd5b816020850160208301376000918101602001919091529392505050565b60008060408385031215611f2f57600080fd5b8235915060208301356001600160401b03811115611f4c57600080fd5b611f5885828601611ead565b9150509250929050565b60008060408385031215611f7557600080fd5b50508035926020909101359150565b60008060008060808587031215611f9a57600080fd5b611fa385611e30565b966020860135965060408601359560600135945092505050565b60008060408385031215611fd057600080fd5b82359150611fe060208401611e30565b90509250929050565b60006020808385031215611ffc57600080fd5b82356001600160401b038082111561201357600080fd5b818501915085601f83011261202757600080fd5b81358181111561203957612039611e67565b8060051b915061204a848301611e7d565b818152918301840191848101908884111561206457600080fd5b938501935b8385101561208257843582529385019390850190612069565b98975050505050505050565b8015158114610e4957600080fd5b600080604083850312156120af57600080fd5b8235915060208301356120c18161208e565b809150509250929050565b6000806000606084860312156120e157600080fd5b833592506120f160208501611e30565b9150604084013590509250925092565b60006020828403121561211357600080fd5b81356001600160401b0381111561212957600080fd5b611bd784828501611ead565b6000806020838503121561214857600080fd5b82356001600160401b038082111561215f57600080fd5b818501915085601f83011261217357600080fd5b81358181111561218257600080fd5b8660208260051b850101111561219757600080fd5b60209290920196919550909350505050565b60005b838110156121c45781810151838201526020016121ac565b50506000910152565b600081518084526121e58160208601602086016121a9565b601f01601f19169290920160200192915050565b6000602080830181845280855180835260408601915060408160051b870101925083870160005b8281101561224e57603f1988860301845261223c8583516121cd565b94509285019290850190600101612220565b5092979650505050505050565b60008060006060848603121561227057600080fd5b83356001600160401b0381111561228657600080fd5b61229286828701611ead565b9660208601359650604090950135949350505050565b600080604083850312156122bb57600080fd5b6122c483611e30565b946020939093013593505050565b600080604083850312156122e557600080fd5b6122ee83611e30565b915060208301356001600160401b03811115611f4c57600080fd5b6020808252602d908201527f52414841543a204e6f20616e7920746f6b656e2077617320697373756564207460408201526c37903a3434b990373ab6b132b960991b606082015260800190565b6020808252602a908201527f52414841543a2053656e646572204d757374206265206120726567697374657260408201526932b2103b32b73237b91760b11b606082015260800190565b6001600160a01b03929092168252602082015260400190565b6000602082840312156123cb57600080fd5b81516118e18161208e565b6020808252601f908201527f52414841543a2053656e646572206d75737420626520616e2061646d696e2e00604082015260600190565b634e487b7160e01b600052601160045260246000fd5b8082018082111561067d5761067d61240d565b634e487b7160e01b600052603260045260246000fd5b60006001820161245e5761245e61240d565b5060010190565b600082516124778184602087016121a9565b9190910192915050565b6000808335601e1984360301811261249857600080fd5b8301803591506001600160401b038211156124b257600080fd5b6020019150368190038213156124c757600080fd5b9250929050565b8181038181111561067d5761067d61240d565b60008160001904831182151516156124fb576124fb61240d565b500290565b60008161250f5761250f61240d565b506000190190565b76020b1b1b2b9b9a1b7b73a3937b61d1030b1b1b7bab73a1604d1b8152600083516125498160178501602088016121a9565b7001034b99036b4b9b9b4b733903937b6329607d1b601791840191820152835161257a8160288401602088016121a9565b01602801949350505050565b6020815260006118e160208301846121cd565b634e487b7160e01b600052601260045260246000fd5b6000826125be576125be612599565b500490565b6000826125d2576125d2612599565b50069056fe0aaf57387812c7f832412470a57567b5648a930069be49aa9c98d04f88520d34be9e90431f28bd12a87a51b26b014cab620a8a4819bf73d87369ccbe6800a76ccaa7f6290f33308266ee2988386694ac9bc3612b5df272e3502129925a64f997416464726573733a206c6f772d6c6576656c2064656c65676174652063616c6c206661696c6564a26469706673582212202e6d12255cb451b12b96a7876fa9c9a682c7da970aac4467266fd903f005d88d64736f6c63430008100033caa7f6290f33308266ee2988386694ac9bc3612b5df272e3502129925a64f997",
  "immutableReferences": {},
  "source": "//SPDX-License-Identifier: LGPL-3.0\r\n//TODO add balance of beneficiary per project\r\n//TODO suspend mobilizer and vendor\r\n//TODO test tokenissue by mobilizer\r\n//TODO test otp set by server account and otp submission by vendor account\r\n//TODO revole roles\r\n\r\npragma solidity ^0.8.16;\r\nimport \"./RahatERC20.sol\";\r\nimport \"./RahatTriggerResponse.sol\";\r\nimport \"@openzeppelin/contracts/utils/structs/EnumerableSet.sol\";\r\nimport \"@openzeppelin/contracts/utils/cryptography/ECDSA.sol\";\r\nimport \"@openzeppelin/contracts/utils/Multicall.sol\";\r\n\r\ncontract Rahat is AccessControl, Multicall {\r\n  using Strings for uint256;\r\n  using EnumerableSet for EnumerableSet.Bytes32Set;\r\n  using EnumerableSet for EnumerableSet.AddressSet;\r\n  using EnumerableSet for EnumerableSet.UintSet;\r\n  using ECDSA for bytes32;\r\n\r\n  //***** Events *********//\r\n  event ClaimedERC20(\r\n    address indexed vendor,\r\n    uint256 indexed beneficiary,\r\n    uint256 amount\r\n  );\r\n  event ClaimApproved(\r\n    address indexed vendor,\r\n    uint256 indexed phone,\r\n    uint256 amount\r\n  );\r\n  event IssuedERC20(\r\n    bytes32 indexed projectId,\r\n    uint256 indexed phone,\r\n    uint256 amount\r\n  );\r\n  event ClaimAcquiredERC20(\r\n    address indexed vendor,\r\n    uint256 indexed beneficiary,\r\n    uint256 amount\r\n  );\r\n  event InvalidSignature(\r\n    bytes signature,\r\n    bytes32 digest,\r\n    address expectedSigner,\r\n    address recoveredSigner\r\n  );\r\n\r\n  //event BalanceAdjusted(uint256 indexed phone, uint256 amount, string reason);\r\n\r\n  //***** Constant Variables (Roles) *********//\r\n  bytes32 public constant SERVER_ROLE = keccak256(\"SERVER\");\r\n  bytes32 public constant VENDOR_ROLE = keccak256(\"VENDOR\");\r\n  bytes32 public constant MANAGER_ROLE = keccak256(\"MANAGER\");\r\n  bytes32 public constant MOBILIZER_ROLE = keccak256(\"MOBILIZER\");\r\n  bytes32 public constant ISSUE_TOKEN = keccak256(\"issueToken\");\r\n  bytes32 public constant CREATE_CLAIM = keccak256(\"createClaim\");\r\n  bytes32 public constant GET_TOKENS_FROM_CLAIM = keccak256(\r\n    \"getTokensFromClaim\"\r\n  );\r\n\r\n  mapping(address => uint256) public nonces; //delegated users nonces\r\n\r\n  //***** Variables (State) *********//\r\n  //AidToken public tokenContract;\r\n  RahatERC20 public erc20;\r\n  RahatTriggerResponse public triggerResponse;\r\n\r\n  ///@notice track total issued tokens of each benefiicary phone\r\n  mapping(uint256 => uint256) public erc20Issued; //phone=>balance\r\n\r\n  /// @notice track balances of each beneficiary phone\r\n  mapping(uint256 => uint256) public erc20Balance; //phone=>balance\r\n\r\n  mapping(uint256 => bool) public isBanked;\r\n\r\n  /// @notice track projectBalances\r\n  //bytes32[] public projectId;\r\n  EnumerableSet.Bytes32Set private projectId;\r\n  mapping(bytes32 => uint256) remainingProjectErc20Balances;\r\n  mapping(bytes32 => EnumerableSet.AddressSet) projectMobilizers;\r\n  mapping(bytes32 => EnumerableSet.AddressSet) projectVendors;\r\n\r\n  mapping(address => uint256) public erc20IssuedBy;\r\n\r\n  struct claim {\r\n    uint256 amount;\r\n    bytes32 otpHash;\r\n    bool isReleased;\r\n    uint256 date;\r\n  }\r\n  /// @dev vendorAddress => phone => claim\r\n  mapping(address => mapping(bytes32 => claim)) public recentERC20Claims;\r\n\r\n  //***** Constructor *********//\r\n  constructor(\r\n    RahatERC20 _erc20,\r\n    RahatTriggerResponse _triggerResponse,\r\n    address _admin\r\n  ) {\r\n    _setupRole(DEFAULT_ADMIN_ROLE, msg.sender);\r\n    _setupRole(DEFAULT_ADMIN_ROLE, _admin);\r\n    _setRoleAdmin(SERVER_ROLE, DEFAULT_ADMIN_ROLE);\r\n    _setRoleAdmin(VENDOR_ROLE, DEFAULT_ADMIN_ROLE);\r\n    grantRole(SERVER_ROLE, msg.sender);\r\n    erc20 = _erc20;\r\n    triggerResponse = _triggerResponse;\r\n  }\r\n\r\n  function supportsInterface(bytes4 interfaceId)\r\n    public\r\n    view\r\n    virtual\r\n    override(AccessControl)\r\n    returns (bool)\r\n  {\r\n    return super.supportsInterface(interfaceId);\r\n  }\r\n\r\n  //***** Modifiers *********//\r\n  modifier OnlyServer() {\r\n    require(\r\n      hasRole(SERVER_ROLE, msg.sender),\r\n      \"RAHAT: Sender must be an authorized server\"\r\n    );\r\n    _;\r\n  }\r\n  modifier OnlyAdmin {\r\n    require(\r\n      hasRole(DEFAULT_ADMIN_ROLE, msg.sender),\r\n      \"RAHAT: Sender must be an admin.\"\r\n    );\r\n    _;\r\n  }\r\n  modifier IsBeneficiary(uint256 _phone) {\r\n    bytes32 _benId = findHash(_phone);\r\n    require(\r\n      erc20Balance[_phone] != 0,\r\n      \"RAHAT: No any token was issued to this number\"\r\n    );\r\n    _;\r\n  }\r\n  modifier OnlyVendor {\r\n    require(\r\n      hasRole(VENDOR_ROLE, msg.sender),\r\n      \"RAHAT: Sender Must be a registered vendor.\"\r\n    );\r\n    _;\r\n  }\r\n  modifier OnlyAdminOrMobilizer {\r\n    require(\r\n      (hasRole(DEFAULT_ADMIN_ROLE, msg.sender) ||\r\n        hasRole(MOBILIZER_ROLE, msg.sender)),\r\n      \"RAHAT: Sender Must be a registered Admin Or Mobilizer.\"\r\n    );\r\n    _;\r\n  }\r\n\r\n  //***** Methods *********//\r\n  //Access Control Management\r\n  /// @notice add admin of the this contract\r\n  /// @param _account address of the new admin\r\n  function addAdmin(address _account) external OnlyAdmin {\r\n    grantRole(DEFAULT_ADMIN_ROLE, _account);\r\n  }\r\n\r\n  function isAdmin(address _account) external view returns(bool){\r\n    return hasRole(DEFAULT_ADMIN_ROLE, _account);\r\n  }\r\n\r\n  /// @notice add server account for this contract\r\n  /// @param _account address of the new server account\r\n  function addServer(address _account) external OnlyAdmin {\r\n    grantRole(SERVER_ROLE, _account);\r\n  }\r\n\r\n  /// @notice add vendors\r\n  /// @param _account address of the new vendor\r\n  function addVendor(address _account) external OnlyAdmin {\r\n    grantRole(VENDOR_ROLE, _account);\r\n  }\r\n\r\n  function isVendor(address _account) public view returns(bool){\r\n    return hasRole(VENDOR_ROLE, _account);\r\n  }\r\n\r\n  /// @notice add vendors\r\n  /// @param _account address of the new vendor\r\n  /// @param _projectId projectId\r\n  function addMobilizer(address _account, string memory _projectId)\r\n    external\r\n    OnlyAdmin\r\n  {\r\n    bytes32 _id = findHash(_projectId);\r\n    grantRole(MOBILIZER_ROLE, _account);\r\n    projectMobilizers[_id].add(_account);\r\n  }\r\n\r\n  /// @notice set IsBanked Beneficiary\r\n  /// @param _phone beneficiary phone number\r\n  /// @param _isBanked true/false\r\n  function setAsBankedBeneficiary(uint256 _phone, bool _isBanked)\r\n    external\r\n    OnlyAdmin\r\n  {\r\n    isBanked[_phone] = _isBanked;\r\n  }\r\n\r\n  // function suspendMobilizer() public {}\r\n\r\n  // function suspendVendor() public {}\r\n\r\n  //Beneficiary Management\r\n  /// @notice suspend the benficiary by deducting all the balance beneficiary owns\r\n  /// @param _phone phone number of the Beneficiary\r\n  /// @param _projectId projectId beneficiary is involved in\r\n  function suspendBeneficiary(uint256 _phone, bytes32 _projectId)\r\n    public\r\n    OnlyAdmin\r\n    IsBeneficiary(_phone)\r\n  {\r\n    //  bytes32 _benId = findHash(_phone);\r\n\r\n    uint256 _balance = erc20Balance[_phone];\r\n    remainingProjectErc20Balances[_projectId] += _balance;\r\n    adjustTokenDeduct(_phone, _balance);\r\n  }\r\n\r\n  /// @notice adds the token from beneficiary\r\n  function adjustTokenAdd(uint256 _phone, uint256 _amount) private {\r\n    // bytes32 _benId = findHash(_phone);\r\n    erc20Balance[_phone] = erc20Balance[_phone] + _amount;\r\n    erc20Issued[_phone] = erc20Issued[_phone] + _amount;\r\n    //emit BalanceAdjusted(_phone, _amount, _reason);\r\n  }\r\n\r\n  /// @notice deducts the token from beneficiary\r\n  function adjustTokenDeduct(uint256 _phone, uint256 _amount)\r\n    private\r\n    IsBeneficiary(_phone)\r\n  {\r\n    //bytes32 _benId = findHash(_phone);\r\n    erc20Balance[_phone] = erc20Balance[_phone] - _amount;\r\n    //emit BalanceAdjusted(_phone, _amount, _reason);\r\n  }\r\n\r\n  /// @notice update a project balance.\r\n  /// @notice called by rahatdmin contract\r\n  /// @param _projectId Id of the project to assign budget\r\n  /// @param _projectCapital amount of budget to be added to project\r\n  function updateProjectBudget(bytes32 _projectId, uint256 _projectCapital)\r\n    external\r\n  {\r\n    remainingProjectErc20Balances[_projectId] += _projectCapital;\r\n  }\r\n\r\n  /// @notice get the current balance of project\r\n  function getProjectBalance(bytes32 _projectId)\r\n    external\r\n    view\r\n    returns (uint256 _balance)\r\n  {\r\n    return remainingProjectErc20Balances[_projectId];\r\n  }\r\n\r\n  function verifyVendor(bytes32 _hash, bytes memory _signature)\r\n    internal\r\n    view\r\n    returns (address)\r\n  {\r\n    address _signer = _hash.recover(_signature);\r\n    require(hasRole(VENDOR_ROLE, _signer), \"Signer should be Mobilizer\");\r\n    return _signer;\r\n  }\r\n\r\n  function verifyMobilizer(bytes32 _hash, bytes memory _signature)\r\n    internal\r\n    view\r\n    returns (address)\r\n  {\r\n    address _signer = _hash.recover(_signature);\r\n    require(hasRole(MOBILIZER_ROLE, _signer), \"Signer should be Mobilizer\");\r\n    return _signer;\r\n  }\r\n\r\n  /// @notice Issue tokens to beneficiary\r\n  /// @param _projectId Id of the project beneficiary is involved in\r\n  /// @param _phone phone number of the beneficiary\r\n  /// @param _amount Amount of token to be assigned to beneficiary\r\n  function issueERC20ToBeneficiary(\r\n    string memory _projectId,\r\n    uint256 _phone,\r\n    uint256 _amount\r\n  ) public OnlyAdminOrMobilizer {\r\n    bytes32 _id = findHash(_projectId);\r\n\r\n    if (hasRole(MOBILIZER_ROLE, msg.sender)) {\r\n      require(\r\n        projectMobilizers[_id].contains(msg.sender),\r\n        \"mobilizer is not onboarded to given project\"\r\n      );\r\n    }\r\n    erc20IssuedBy[msg.sender] += _amount;\r\n\r\n    require(\r\n      remainingProjectErc20Balances[_id] >= _amount,\r\n      \"RAHAT: Amount is greater than remaining Project Budget\"\r\n    );\r\n    remainingProjectErc20Balances[_id] -= _amount;\r\n    adjustTokenAdd(_phone, _amount);\r\n\r\n    emit IssuedERC20(_id, _phone, _amount);\r\n  }\r\n\r\n  /// @notice request a token to beneficiary by vendor\r\n  /// @param _phone Phone number of beneficiary to whom token is requested\r\n  /// @param _tokens Number of tokens to request\r\n  function createERC20Claim(uint256 _phone, uint256 _tokens)\r\n    public\r\n    IsBeneficiary(_phone)\r\n    OnlyVendor\r\n  {\r\n    require(\r\n      triggerResponse.isLive(),\r\n      \"This response has not been activated yet, please contact admin.\"\r\n    );\r\n    require(!isBanked[_phone], \"Cannot claim from banked beneficiary\");\r\n\r\n    bytes32 _benId = findHash(_phone);\r\n    require(\r\n      erc20Balance[_phone] >= _tokens,\r\n      \"RAHAT: Amount requested is greater than beneficiary balance.\"\r\n    );\r\n\r\n    claim storage ac = recentERC20Claims[msg.sender][_benId];\r\n    ac.isReleased = false;\r\n    ac.amount = _tokens;\r\n    ac.date = block.timestamp;\r\n    emit ClaimedERC20(tx.origin, _phone, _tokens);\r\n  }\r\n\r\n  /// @notice Approve the requested claim from serverside and set the otp hash\r\n  /// @param _vendor Address of the vendor who requested the token from beneficiary\r\n  /// @param _phone Phone number of the beneficiary, to whom token request was sent\r\n  /// @param _otpHash Hash of OTP sent to beneficiary by server\r\n  /// @param _timeToLive Validity of OTP in seconds\r\n  function approveERC20Claim(\r\n    address _vendor,\r\n    uint256 _phone,\r\n    bytes32 _otpHash,\r\n    uint256 _timeToLive\r\n  ) public IsBeneficiary(_phone) OnlyServer {\r\n    bytes32 _benId = findHash(_phone);\r\n    claim storage ac = recentERC20Claims[_vendor][_benId];\r\n    require(ac.date != 0, \"RAHAT: Claim has not been created yet\");\r\n    require(\r\n      _timeToLive <= 86400,\r\n      \"RAHAT:Time To Live should be less than 24 hours\"\r\n    );\r\n    require(\r\n      block.timestamp <= ac.date + 86400,\r\n      \"RAHAT: Claim is older than 24 hours\"\r\n    );\r\n    require(!ac.isReleased, \"RAHAT: Claim has already been released.\");\r\n    ac.otpHash = _otpHash;\r\n    ac.isReleased = true;\r\n    ac.date = block.timestamp + _timeToLive;\r\n    emit ClaimApproved(_vendor, _phone, ac.amount);\r\n  }\r\n\r\n  /// @notice Retrieve tokens that was requested to beneficiary by entering OTP\r\n  /// @param _phone Phone Number of the beneficiary, to whom token request was sent\r\n  /// @param _otp OTP sent by the server\r\n  function getERC20FromClaim(uint256 _phone, string memory _otp)\r\n    public\r\n    IsBeneficiary(_phone)\r\n    OnlyVendor\r\n  {\r\n    bytes32 _benId = findHash(_phone);\r\n    claim storage ac = recentERC20Claims[msg.sender][_benId];\r\n    require(ac.isReleased, \"RAHAT: Claim has not been released.\");\r\n    require(ac.date >= block.timestamp, \"RAHAT: Claim has already expired.\");\r\n    bytes32 otpHash = findHash(_otp);\r\n    require(\r\n      recentERC20Claims[msg.sender][_benId].otpHash == otpHash,\r\n      \"RAHAT: OTP did not match.\"\r\n    );\r\n    adjustTokenDeduct(_phone, ac.amount);\r\n    uint256 amt = ac.amount;\r\n    ac.isReleased = false;\r\n    ac.amount = 0;\r\n    ac.date = 0;\r\n    erc20.transfer(msg.sender, amt);\r\n    emit ClaimAcquiredERC20(msg.sender, _phone, amt);\r\n  }\r\n\r\n  /// @notice Admin function to transfer beneficiary token to vendor\r\n  /// @param _phone Phone number of beneficiary to whom token is requested\r\n  /// @param _address vendor's address\r\n  /// @param _amount Number of tokens to request\r\n  function transferTokenToVendorByAdmin(uint256 _phone, address _address, uint256 _amount) \r\n    public IsBeneficiary(_phone) OnlyAdmin {\r\n      require(isVendor(_address), \"Transfer to must be vendor address\");\r\n      adjustTokenDeduct(_phone, _amount);\r\n      erc20.transfer(_address, _amount);\r\n  }\r\n\r\n  /// @notice generates the hash of the given string\r\n  /// @param _data String of which hash is to be generated\r\n  function findHash(string memory _data) public pure returns (bytes32) {\r\n    return keccak256(abi.encodePacked(_data));\r\n  }\r\n\r\n  /// @notice generates the hash of the given string\r\n  /// @param _data String of which hash is to be generated\r\n  function findHash(uint256 _data) public pure returns (bytes32) {\r\n    return keccak256(abi.encodePacked(_data.toString()));\r\n  }\r\n\r\n  /// @notice Generates the sum of all the integers in array\r\n  /// @param _array Array of uint\r\n  function getArraySum(uint256[] memory _array)\r\n    public\r\n    pure\r\n    returns (uint256 sum)\r\n  {\r\n    sum = 0;\r\n    for (uint256 i = 0; i < _array.length; i++) {\r\n      sum += _array[i];\r\n    }\r\n    return sum;\r\n  }\r\n}\r\n",
  "sourcePath": "S:\\Projects\\rahat\\unicef-np\\rahat-contracts\\src\\contracts\\Rahat.sol",
  "compiler": {
    "name": "solc",
    "version": "0.8.16+commit.07a7930e.Emscripten.clang"
  },
  "schemaVersion": "3.4.9",
  "updatedAt": "2022-09-06T09:06:42.903Z",
  "devdoc": {
    "kind": "dev",
    "methods": {
      "addAdmin(address)": {
        "params": {
          "_account": "address of the new admin"
        }
      },
      "addMobilizer(address,string)": {
        "params": {
          "_account": "address of the new vendor",
          "_projectId": "projectId"
        }
      },
      "addServer(address)": {
        "params": {
          "_account": "address of the new server account"
        }
      },
      "addVendor(address)": {
        "params": {
          "_account": "address of the new vendor"
        }
      },
      "approveERC20Claim(address,uint256,bytes32,uint256)": {
        "params": {
          "_otpHash": "Hash of OTP sent to beneficiary by server",
          "_phone": "Phone number of the beneficiary, to whom token request was sent",
          "_timeToLive": "Validity of OTP in seconds",
          "_vendor": "Address of the vendor who requested the token from beneficiary"
        }
      },
      "createERC20Claim(uint256,uint256)": {
        "params": {
          "_phone": "Phone number of beneficiary to whom token is requested",
          "_tokens": "Number of tokens to request"
        }
      },
      "findHash(string)": {
        "params": {
          "_data": "String of which hash is to be generated"
        }
      },
      "findHash(uint256)": {
        "params": {
          "_data": "String of which hash is to be generated"
        }
      },
      "getArraySum(uint256[])": {
        "params": {
          "_array": "Array of uint"
        }
      },
      "getERC20FromClaim(uint256,string)": {
        "params": {
          "_otp": "OTP sent by the server",
          "_phone": "Phone Number of the beneficiary, to whom token request was sent"
        }
      },
      "getRoleAdmin(bytes32)": {
        "details": "Returns the admin role that controls `role`. See {grantRole} and {revokeRole}. To change a role's admin, use {_setRoleAdmin}."
      },
      "grantRole(bytes32,address)": {
        "details": "Grants `role` to `account`. If `account` had not been already granted `role`, emits a {RoleGranted} event. Requirements: - the caller must have ``role``'s admin role."
      },
      "hasRole(bytes32,address)": {
        "details": "Returns `true` if `account` has been granted `role`."
      },
      "issueERC20ToBeneficiary(string,uint256,uint256)": {
        "params": {
          "_amount": "Amount of token to be assigned to beneficiary",
          "_phone": "phone number of the beneficiary",
          "_projectId": "Id of the project beneficiary is involved in"
        }
      },
      "multicall(bytes[])": {
        "details": "Receives and executes a batch of function calls on this contract."
      },
      "renounceRole(bytes32,address)": {
        "details": "Revokes `role` from the calling account. Roles are often managed via {grantRole} and {revokeRole}: this function's purpose is to provide a mechanism for accounts to lose their privileges if they are compromised (such as when a trusted device is misplaced). If the calling account had been revoked `role`, emits a {RoleRevoked} event. Requirements: - the caller must be `account`."
      },
      "revokeRole(bytes32,address)": {
        "details": "Revokes `role` from `account`. If `account` had been granted `role`, emits a {RoleRevoked} event. Requirements: - the caller must have ``role``'s admin role."
      },
      "setAsBankedBeneficiary(uint256,bool)": {
        "params": {
          "_isBanked": "true/false",
          "_phone": "beneficiary phone number"
        }
      },
      "supportsInterface(bytes4)": {
        "details": "See {IERC165-supportsInterface}."
      },
      "suspendBeneficiary(uint256,bytes32)": {
        "params": {
          "_phone": "phone number of the Beneficiary",
          "_projectId": "projectId beneficiary is involved in"
        }
      },
      "transferTokenToVendorByAdmin(uint256,address,uint256)": {
        "params": {
          "_address": "vendor's address",
          "_amount": "Number of tokens to request",
          "_phone": "Phone number of beneficiary to whom token is requested"
        }
      },
      "updateProjectBudget(bytes32,uint256)": {
        "params": {
          "_projectCapital": "amount of budget to be added to project",
          "_projectId": "Id of the project to assign budget"
        }
      }
    },
    "stateVariables": {
      "recentERC20Claims": {
        "details": "vendorAddress => phone => claim"
      }
    },
    "version": 1
  },
  "userdoc": {
    "kind": "user",
    "methods": {
      "addAdmin(address)": {
        "notice": "add admin of the this contract"
      },
      "addMobilizer(address,string)": {
        "notice": "add vendors"
      },
      "addServer(address)": {
        "notice": "add server account for this contract"
      },
      "addVendor(address)": {
        "notice": "add vendors"
      },
      "approveERC20Claim(address,uint256,bytes32,uint256)": {
        "notice": "Approve the requested claim from serverside and set the otp hash"
      },
      "createERC20Claim(uint256,uint256)": {
        "notice": "request a token to beneficiary by vendor"
      },
      "erc20Balance(uint256)": {
        "notice": "track balances of each beneficiary phone"
      },
      "erc20Issued(uint256)": {
        "notice": "track total issued tokens of each benefiicary phone"
      },
      "findHash(string)": {
        "notice": "generates the hash of the given string"
      },
      "findHash(uint256)": {
        "notice": "generates the hash of the given string"
      },
      "getArraySum(uint256[])": {
        "notice": "Generates the sum of all the integers in array"
      },
      "getERC20FromClaim(uint256,string)": {
        "notice": "Retrieve tokens that was requested to beneficiary by entering OTP"
      },
      "getProjectBalance(bytes32)": {
        "notice": "get the current balance of project"
      },
      "issueERC20ToBeneficiary(string,uint256,uint256)": {
        "notice": "Issue tokens to beneficiary"
      },
      "setAsBankedBeneficiary(uint256,bool)": {
        "notice": "set IsBanked Beneficiary"
      },
      "suspendBeneficiary(uint256,bytes32)": {
        "notice": "suspend the benficiary by deducting all the balance beneficiary owns"
      },
      "transferTokenToVendorByAdmin(uint256,address,uint256)": {
        "notice": "Admin function to transfer beneficiary token to vendor"
      },
      "updateProjectBudget(bytes32,uint256)": {
        "notice": "update a project balance.called by rahatdmin contract"
      }
    },
    "version": 1
  }
}