{
  "contractName": "RahatERC1155",
  "abi": [
    {
      "inputs": [
        {
          "internalType": "address",
          "name": "_admin",
          "type": "address"
        }
      ],
      "stateMutability": "nonpayable",
      "type": "constructor"
    },
    {
      "anonymous": false,
      "inputs": [
        {
          "indexed": true,
          "internalType": "address",
          "name": "account",
          "type": "address"
        },
        {
          "indexed": true,
          "internalType": "address",
          "name": "operator",
          "type": "address"
        },
        {
          "indexed": false,
          "internalType": "bool",
          "name": "approved",
          "type": "bool"
        }
      ],
      "name": "ApprovalForAll",
      "type": "event"
    },
    {
      "anonymous": false,
      "inputs": [
        {
          "indexed": true,
          "internalType": "address",
          "name": "operator",
          "type": "address"
        },
        {
          "indexed": true,
          "internalType": "address",
          "name": "from",
          "type": "address"
        },
        {
          "indexed": true,
          "internalType": "address",
          "name": "to",
          "type": "address"
        },
        {
          "indexed": false,
          "internalType": "uint256[]",
          "name": "ids",
          "type": "uint256[]"
        },
        {
          "indexed": false,
          "internalType": "uint256[]",
          "name": "values",
          "type": "uint256[]"
        }
      ],
      "name": "TransferBatch",
      "type": "event"
    },
    {
      "anonymous": false,
      "inputs": [
        {
          "indexed": true,
          "internalType": "address",
          "name": "operator",
          "type": "address"
        },
        {
          "indexed": true,
          "internalType": "address",
          "name": "from",
          "type": "address"
        },
        {
          "indexed": true,
          "internalType": "address",
          "name": "to",
          "type": "address"
        },
        {
          "indexed": false,
          "internalType": "uint256",
          "name": "id",
          "type": "uint256"
        },
        {
          "indexed": false,
          "internalType": "uint256",
          "name": "value",
          "type": "uint256"
        }
      ],
      "name": "TransferSingle",
      "type": "event"
    },
    {
      "anonymous": false,
      "inputs": [
        {
          "indexed": false,
          "internalType": "string",
          "name": "value",
          "type": "string"
        },
        {
          "indexed": true,
          "internalType": "uint256",
          "name": "id",
          "type": "uint256"
        }
      ],
      "name": "URI",
      "type": "event"
    },
    {
      "inputs": [
        {
          "internalType": "address",
          "name": "account",
          "type": "address"
        },
        {
          "internalType": "uint256",
          "name": "id",
          "type": "uint256"
        }
      ],
      "name": "balanceOf",
      "outputs": [
        {
          "internalType": "uint256",
          "name": "",
          "type": "uint256"
        }
      ],
      "stateMutability": "view",
      "type": "function"
    },
    {
      "inputs": [
        {
          "internalType": "address[]",
          "name": "accounts",
          "type": "address[]"
        },
        {
          "internalType": "uint256[]",
          "name": "ids",
          "type": "uint256[]"
        }
      ],
      "name": "balanceOfBatch",
      "outputs": [
        {
          "internalType": "uint256[]",
          "name": "",
          "type": "uint256[]"
        }
      ],
      "stateMutability": "view",
      "type": "function"
    },
    {
      "inputs": [
        {
          "internalType": "address",
          "name": "account",
          "type": "address"
        },
        {
          "internalType": "uint256",
          "name": "id",
          "type": "uint256"
        },
        {
          "internalType": "uint256",
          "name": "value",
          "type": "uint256"
        }
      ],
      "name": "burn",
      "outputs": [],
      "stateMutability": "nonpayable",
      "type": "function"
    },
    {
      "inputs": [
        {
          "internalType": "address",
          "name": "account",
          "type": "address"
        },
        {
          "internalType": "uint256[]",
          "name": "ids",
          "type": "uint256[]"
        },
        {
          "internalType": "uint256[]",
          "name": "values",
          "type": "uint256[]"
        }
      ],
      "name": "burnBatch",
      "outputs": [],
      "stateMutability": "nonpayable",
      "type": "function"
    },
    {
      "inputs": [
        {
          "internalType": "address",
          "name": "account",
          "type": "address"
        },
        {
          "internalType": "address",
          "name": "operator",
          "type": "address"
        }
      ],
      "name": "isApprovedForAll",
      "outputs": [
        {
          "internalType": "bool",
          "name": "",
          "type": "bool"
        }
      ],
      "stateMutability": "view",
      "type": "function"
    },
    {
      "inputs": [
        {
          "internalType": "uint256",
          "name": "",
          "type": "uint256"
        }
      ],
      "name": "name",
      "outputs": [
        {
          "internalType": "string",
          "name": "",
          "type": "string"
        }
      ],
      "stateMutability": "view",
      "type": "function"
    },
    {
      "inputs": [
        {
          "internalType": "address",
          "name": "",
          "type": "address"
        }
      ],
      "name": "owner",
      "outputs": [
        {
          "internalType": "bool",
          "name": "",
          "type": "bool"
        }
      ],
      "stateMutability": "view",
      "type": "function"
    },
    {
      "inputs": [
        {
          "internalType": "address",
          "name": "from",
          "type": "address"
        },
        {
          "internalType": "address",
          "name": "to",
          "type": "address"
        },
        {
          "internalType": "uint256[]",
          "name": "ids",
          "type": "uint256[]"
        },
        {
          "internalType": "uint256[]",
          "name": "amounts",
          "type": "uint256[]"
        },
        {
          "internalType": "bytes",
          "name": "data",
          "type": "bytes"
        }
      ],
      "name": "safeBatchTransferFrom",
      "outputs": [],
      "stateMutability": "nonpayable",
      "type": "function"
    },
    {
      "inputs": [
        {
          "internalType": "address",
          "name": "from",
          "type": "address"
        },
        {
          "internalType": "address",
          "name": "to",
          "type": "address"
        },
        {
          "internalType": "uint256",
          "name": "id",
          "type": "uint256"
        },
        {
          "internalType": "uint256",
          "name": "amount",
          "type": "uint256"
        },
        {
          "internalType": "bytes",
          "name": "data",
          "type": "bytes"
        }
      ],
      "name": "safeTransferFrom",
      "outputs": [],
      "stateMutability": "nonpayable",
      "type": "function"
    },
    {
      "inputs": [
        {
          "internalType": "address",
          "name": "operator",
          "type": "address"
        },
        {
          "internalType": "bool",
          "name": "approved",
          "type": "bool"
        }
      ],
      "name": "setApprovalForAll",
      "outputs": [],
      "stateMutability": "nonpayable",
      "type": "function"
    },
    {
      "inputs": [
        {
          "internalType": "bytes4",
          "name": "interfaceId",
          "type": "bytes4"
        }
      ],
      "name": "supportsInterface",
      "outputs": [
        {
          "internalType": "bool",
          "name": "",
          "type": "bool"
        }
      ],
      "stateMutability": "view",
      "type": "function"
    },
    {
      "inputs": [
        {
          "internalType": "uint256",
          "name": "",
          "type": "uint256"
        }
      ],
      "name": "symbol",
      "outputs": [
        {
          "internalType": "string",
          "name": "",
          "type": "string"
        }
      ],
      "stateMutability": "view",
      "type": "function"
    },
    {
      "inputs": [
        {
          "internalType": "uint256",
          "name": "id",
          "type": "uint256"
        }
      ],
      "name": "totalSupply",
      "outputs": [
        {
          "internalType": "uint256",
          "name": "",
          "type": "uint256"
        }
      ],
      "stateMutability": "view",
      "type": "function"
    },
    {
      "inputs": [
        {
          "internalType": "uint256",
          "name": "",
          "type": "uint256"
        }
      ],
      "name": "uri",
      "outputs": [
        {
          "internalType": "string",
          "name": "",
          "type": "string"
        }
      ],
      "stateMutability": "view",
      "type": "function"
    },
    {
      "inputs": [
        {
          "internalType": "string",
          "name": "_name",
          "type": "string"
        },
        {
          "internalType": "string",
          "name": "_symbol",
          "type": "string"
        },
        {
          "internalType": "uint256",
          "name": "_amount",
          "type": "uint256"
        }
      ],
      "name": "mintERC1155",
      "outputs": [
        {
          "internalType": "uint256",
          "name": "",
          "type": "uint256"
        }
      ],
      "stateMutability": "nonpayable",
      "type": "function"
    },
    {
      "inputs": [
        {
          "internalType": "string",
          "name": "newuri",
          "type": "string"
        }
      ],
      "name": "setBaseURI",
      "outputs": [],
      "stateMutability": "nonpayable",
      "type": "function"
    },
    {
      "inputs": [
        {
          "internalType": "uint256",
          "name": "_id",
          "type": "uint256"
        }
      ],
      "name": "exists",
      "outputs": [
        {
          "internalType": "bool",
          "name": "",
          "type": "bool"
        }
      ],
      "stateMutability": "view",
      "type": "function"
    },
    {
      "inputs": [
        {
          "internalType": "uint256",
          "name": "_id",
          "type": "uint256"
        },
        {
          "internalType": "uint256",
          "name": "_amount",
          "type": "uint256"
        }
      ],
      "name": "mintExistingERC1155",
      "outputs": [],
      "stateMutability": "nonpayable",
      "type": "function"
    },
    {
      "inputs": [
        {
          "internalType": "uint256",
          "name": "_tokenId",
          "type": "uint256"
        }
      ],
      "name": "getTokenData",
      "outputs": [
        {
          "internalType": "string",
          "name": "",
          "type": "string"
        }
      ],
      "stateMutability": "view",
      "type": "function"
    },
    {
      "inputs": [
        {
          "internalType": "address",
          "name": "_account",
          "type": "address"
        }
      ],
      "name": "addOwner",
      "outputs": [],
      "stateMutability": "nonpayable",
      "type": "function"
    }
  ],
  "bytecode": "0x60806040523480156200001157600080fd5b5060405162002465380380620024658339810160408190526200003491620000ae565b60408051808201909152601c81527f68747470733a2f2f697066732e72756d73616e2e636f6d2f6970667300000000602082015262000073816200009c565b506001600160a01b03166000908152600560205260409020805460ff1916600117905562000251565b6002620000aa828262000185565b5050565b600060208284031215620000c157600080fd5b81516001600160a01b0381168114620000d957600080fd5b9392505050565b634e487b7160e01b600052604160045260246000fd5b600181811c908216806200010b57607f821691505b6020821081036200012c57634e487b7160e01b600052602260045260246000fd5b50919050565b601f8211156200018057600081815260208120601f850160051c810160208610156200015b5750805b601f850160051c820191505b818110156200017c5782815560010162000167565b5050505b505050565b81516001600160401b03811115620001a157620001a1620000e0565b620001b981620001b28454620000f6565b8462000132565b602080601f831160018114620001f15760008415620001d85750858301515b600019600386901b1c1916600185901b1785556200017c565b600085815260208120601f198616915b82811015620002225788860151825594840194600190910190840162000201565b5085821015620002415787850151600019600388901b60f8161c191681555b5050505050600190811b01905550565b61220480620002616000396000f3fe608060405234801561001057600080fd5b506004361061010a5760003560e01c80636b20c4541161009d5780636b20c454146102205780637065cb48146102335780638b4176c614610246578063a22cb46514610259578063b09afec11461026c578063b78e7d9e1461027f578063bd85b03914610292578063e985e9c5146102b2578063f242432a146102ee578063f5298aca1461030157600080fd5b8062ad800c1461010f578062fdd58e1461013857806301ffc9a7146101595780630e89341c1461017c5780632eb2c2d61461018f5780634e1273f4146101a45780634e41a1fb146101c45780634f558e79146101d757806355f804b3146101ea578063666e1b39146101fd575b600080fd5b61012261011d366004611553565b610314565b60405161012f91906115bc565b60405180910390f35b61014b6101463660046115f2565b6103ae565b60405190815260200161012f565b61016c610167366004611632565b610448565b604051901515815260200161012f565b61012261018a366004611553565b610498565b6101a261019d366004611798565b61052c565b005b6101b76101b2366004611841565b6105c3565b60405161012f9190611946565b6101226101d2366004611553565b6106ec565b61016c6101e5366004611553565b610705565b6101a26101f8366004611959565b610719565b61016c61020b36600461198d565b60056020526000908152604090205460ff1681565b6101a261022e3660046119a8565b610754565b6101a261024136600461198d565b61079c565b61014b610254366004611a1b565b6107ef565b6101a2610267366004611a87565b610862565b61012261027a366004611553565b610871565b6101a261028d366004611ac3565b610885565b61014b6102a0366004611553565b60009081526003602052604090205490565b61016c6102c0366004611ae5565b6001600160a01b03918216600090815260016020908152604080832093909416825291909152205460ff1690565b6101a26102fc366004611b18565b610900565b6101a261030f366004611b7c565b610945565b6006602052600090815260409020805461032d90611baf565b80601f016020809104026020016040519081016040528092919081815260200182805461035990611baf565b80156103a65780601f1061037b576101008083540402835291602001916103a6565b820191906000526020600020905b81548152906001019060200180831161038957829003601f168201915b505050505081565b60006001600160a01b03831661041f5760405162461bcd60e51b815260206004820152602b60248201527f455243313135353a2062616c616e636520717565727920666f7220746865207a60448201526a65726f206164647265737360a81b60648201526084015b60405180910390fd5b506000818152602081815260408083206001600160a01b03861684529091529020545b92915050565b60006001600160e01b03198216636cdb3d1360e11b148061047957506001600160e01b031982166303a24d0760e21b145b8061044257506301ffc9a760e01b6001600160e01b0319831614610442565b6060600280546104a790611baf565b80601f01602080910402602001604051908101604052809291908181526020018280546104d390611baf565b80156105205780601f106104f557610100808354040283529160200191610520565b820191906000526020600020905b81548152906001019060200180831161050357829003601f168201915b50505050509050919050565b6001600160a01b038516331480610548575061054885336102c0565b6105af5760405162461bcd60e51b815260206004820152603260248201527f455243313135353a207472616e736665722063616c6c6572206973206e6f74206044820152711bdddb995c881b9bdc88185c1c1c9bdd995960721b6064820152608401610416565b6105bc8585858585610988565b5050505050565b606081518351146106285760405162461bcd60e51b815260206004820152602960248201527f455243313135353a206163636f756e747320616e6420696473206c656e677468604482015268040dad2e6dac2e8c6d60bb1b6064820152608401610416565b600083516001600160401b038111156106435761064361164f565b60405190808252806020026020018201604052801561066c578160200160208202803683370190505b50905060005b84518110156106e4576106b785828151811061069057610690611be9565b60200260200101518583815181106106aa576106aa611be9565b60200260200101516103ae565b8282815181106106c9576106c9611be9565b60209081029190910101526106dd81611c15565b9050610672565b509392505050565b6007602052600090815260409020805461032d90611baf565b60008161071160045490565b101592915050565b3260009081526005602052604090205460ff166107485760405162461bcd60e51b815260040161041690611c2e565b61075181610b32565b50565b6001600160a01b038316331480610770575061077083336102c0565b61078c5760405162461bcd60e51b815260040161041690611c75565b610797838383610b3e565b505050565b3260009081526005602052604090205460ff166107cb5760405162461bcd60e51b815260040161041690611c2e565b6001600160a01b03166000908152600560205260409020805460ff19166001179055565b60006107ff600480546001019055565b600061080a60045490565b60008181526006602052604090209091506108258682611d04565b50600081815260076020526040902061083e8582611d04565b5061085a33828560405180602001604052806000815250610ccc565b949350505050565b61086d338383610dca565b5050565b606061044261087f83610498565b83610eaa565b61088e82610705565b6108e55760405162461bcd60e51b815260206004820152602260248201527f746f6b656e207769746820676976656e20696420646f65736e27742065786973604482015261747360f01b6064820152608401610416565b61086d33838360405180602001604052806000815250610ccc565b6001600160a01b03851633148061091c575061091c85336102c0565b6109385760405162461bcd60e51b815260040161041690611c75565b6105bc8585858585610ede565b6001600160a01b038316331480610961575061096183336102c0565b61097d5760405162461bcd60e51b815260040161041690611c75565b610797838383610fe9565b81518351146109a95760405162461bcd60e51b815260040161041690611dc3565b6001600160a01b0384166109cf5760405162461bcd60e51b815260040161041690611e0b565b336109de8187878787876110d8565b60005b8451811015610ac45760008582815181106109fe576109fe611be9565b602002602001015190506000858381518110610a1c57610a1c611be9565b602090810291909101810151600084815280835260408082206001600160a01b038e168352909352919091205490915081811015610a6c5760405162461bcd60e51b815260040161041690611e50565b6000838152602081815260408083206001600160a01b038e8116855292528083208585039055908b16825281208054849290610aa9908490611e9a565b9250508190555050505080610abd90611c15565b90506109e1565b50846001600160a01b0316866001600160a01b0316826001600160a01b03167f4a39dc06d4c0dbc64b70af90fd698a233a518aa5d07e595d983b8c0526c8f7fb8787604051610b14929190611ead565b60405180910390a4610b2a8187878787876110e6565b505050505050565b600261086d8282611d04565b6001600160a01b038316610b645760405162461bcd60e51b815260040161041690611edb565b8051825114610b855760405162461bcd60e51b815260040161041690611dc3565b6000339050610ba8818560008686604051806020016040528060008152506110d8565b60005b8351811015610c6d576000848281518110610bc857610bc8611be9565b602002602001015190506000848381518110610be657610be6611be9565b602090810291909101810151600084815280835260408082206001600160a01b038c168352909352919091205490915081811015610c365760405162461bcd60e51b815260040161041690611f1e565b6000928352602083815260408085206001600160a01b038b1686529091529092209103905580610c6581611c15565b915050610bab565b5060006001600160a01b0316846001600160a01b0316826001600160a01b03167f4a39dc06d4c0dbc64b70af90fd698a233a518aa5d07e595d983b8c0526c8f7fb8686604051610cbe929190611ead565b60405180910390a450505050565b6001600160a01b038416610d2c5760405162461bcd60e51b815260206004820152602160248201527f455243313135353a206d696e7420746f20746865207a65726f206164647265736044820152607360f81b6064820152608401610416565b33610d4c81600087610d3d88611241565b610d4688611241565b876110d8565b6000848152602081815260408083206001600160a01b038916845290915281208054859290610d7c908490611e9a565b909155505060408051858152602081018590526001600160a01b0380881692600092918516916000805160206121af833981519152910160405180910390a46105bc8160008787878761128c565b816001600160a01b0316836001600160a01b031603610e3d5760405162461bcd60e51b815260206004820152602960248201527f455243313135353a2073657474696e6720617070726f76616c20737461747573604482015268103337b91039b2b63360b91b6064820152608401610416565b6001600160a01b03838116600081815260016020908152604080832094871680845294825291829020805460ff191686151590811790915591519182527f17307eab39ab6107e8899845ad3d59bd9653f200f220920489ca2b5937696c31910160405180910390a3505050565b606082610eb683611347565b604051602001610ec7929190611f62565b604051602081830303815290604052905092915050565b6001600160a01b038416610f045760405162461bcd60e51b815260040161041690611e0b565b33610f14818787610d3d88611241565b6000848152602081815260408083206001600160a01b038a16845290915290205483811015610f555760405162461bcd60e51b815260040161041690611e50565b6000858152602081815260408083206001600160a01b038b8116855292528083208785039055908816825281208054869290610f92908490611e9a565b909155505060408051868152602081018690526001600160a01b03808916928a821692918616916000805160206121af833981519152910160405180910390a4610fe082888888888861128c565b50505050505050565b6001600160a01b03831661100f5760405162461bcd60e51b815260040161041690611edb565b3361103e8185600061102087611241565b61102987611241565b604051806020016040528060008152506110d8565b6000838152602081815260408083206001600160a01b03881684529091529020548281101561107f5760405162461bcd60e51b815260040161041690611f1e565b6000848152602081815260408083206001600160a01b03898116808652918452828520888703905582518981529384018890529092908616916000805160206121af833981519152910160405180910390a45050505050565b610b2a868686868686611447565b6001600160a01b0384163b15610b2a5760405163bc197c8160e01b81526001600160a01b0385169063bc197c819061112a9089908990889088908890600401611fb0565b6020604051808303816000875af1925050508015611165575060408051601f3d908101601f191682019092526111629181019061200e565b60015b6112115761117161202b565b806308c379a0036111aa5750611185612047565b8061119057506111ac565b8060405162461bcd60e51b815260040161041691906115bc565b505b60405162461bcd60e51b815260206004820152603460248201527f455243313135353a207472616e7366657220746f206e6f6e20455243313135356044820152732932b1b2b4bb32b91034b6b83632b6b2b73a32b960611b6064820152608401610416565b6001600160e01b0319811663bc197c8160e01b14610fe05760405162461bcd60e51b8152600401610416906120d0565b6040805160018082528183019092526060916000919060208083019080368337019050509050828160008151811061127b5761127b611be9565b602090810291909101015292915050565b6001600160a01b0384163b15610b2a5760405163f23a6e6160e01b81526001600160a01b0385169063f23a6e61906112d09089908990889088908890600401612118565b6020604051808303816000875af192505050801561130b575060408051601f3d908101601f191682019092526113089181019061200e565b60015b6113175761117161202b565b6001600160e01b0319811663f23a6e6160e01b14610fe05760405162461bcd60e51b8152600401610416906120d0565b60608160000361136e5750506040805180820190915260018152600360fc1b602082015290565b8160005b8115611398578061138281611c15565b91506113919050600a83612173565b9150611372565b6000816001600160401b038111156113b2576113b261164f565b6040519080825280601f01601f1916602001820160405280156113dc576020820181803683370190505b5090505b841561085a576113f1600183612187565b91506113fe600a8661219a565b611409906030611e9a565b60f81b81838151811061141e5761141e611be9565b60200101906001600160f81b031916908160001a905350611440600a86612173565b94506113e0565b6001600160a01b0385166114ce5760005b83518110156114cc5782818151811061147357611473611be9565b60200260200101516003600086848151811061149157611491611be9565b6020026020010151815260200190815260200160002060008282546114b69190611e9a565b909155506114c5905081611c15565b9050611458565b505b6001600160a01b038416610b2a5760005b8351811015610fe0578281815181106114fa576114fa611be9565b60200260200101516003600086848151811061151857611518611be9565b60200260200101518152602001908152602001600020600082825461153d9190612187565b9091555061154c905081611c15565b90506114df565b60006020828403121561156557600080fd5b5035919050565b60005b8381101561158757818101518382015260200161156f565b50506000910152565b600081518084526115a881602086016020860161156c565b601f01601f19169290920160200192915050565b6020815260006115cf6020830184611590565b9392505050565b80356001600160a01b03811681146115ed57600080fd5b919050565b6000806040838503121561160557600080fd5b61160e836115d6565b946020939093013593505050565b6001600160e01b03198116811461075157600080fd5b60006020828403121561164457600080fd5b81356115cf8161161c565b634e487b7160e01b600052604160045260246000fd5b601f8201601f191681016001600160401b038111828210171561168a5761168a61164f565b6040525050565b60006001600160401b038211156116aa576116aa61164f565b5060051b60200190565b600082601f8301126116c557600080fd5b813560206116d282611691565b6040516116df8282611665565b83815260059390931b85018201928281019150868411156116ff57600080fd5b8286015b8481101561171a5780358352918301918301611703565b509695505050505050565b600082601f83011261173657600080fd5b81356001600160401b0381111561174f5761174f61164f565b604051611766601f8301601f191660200182611665565b81815284602083860101111561177b57600080fd5b816020850160208301376000918101602001919091529392505050565b600080600080600060a086880312156117b057600080fd5b6117b9866115d6565b94506117c7602087016115d6565b935060408601356001600160401b03808211156117e357600080fd5b6117ef89838a016116b4565b9450606088013591508082111561180557600080fd5b61181189838a016116b4565b9350608088013591508082111561182757600080fd5b5061183488828901611725565b9150509295509295909350565b6000806040838503121561185457600080fd5b82356001600160401b038082111561186b57600080fd5b818501915085601f83011261187f57600080fd5b8135602061188c82611691565b6040516118998282611665565b83815260059390931b85018201928281019150898411156118b957600080fd5b948201945b838610156118de576118cf866115d6565b825294820194908201906118be565b965050860135925050808211156118f457600080fd5b50611901858286016116b4565b9150509250929050565b600081518084526020808501945080840160005b8381101561193b5781518752958201959082019060010161191f565b509495945050505050565b6020815260006115cf602083018461190b565b60006020828403121561196b57600080fd5b81356001600160401b0381111561198157600080fd5b61085a84828501611725565b60006020828403121561199f57600080fd5b6115cf826115d6565b6000806000606084860312156119bd57600080fd5b6119c6846115d6565b925060208401356001600160401b03808211156119e257600080fd5b6119ee878388016116b4565b93506040860135915080821115611a0457600080fd5b50611a11868287016116b4565b9150509250925092565b600080600060608486031215611a3057600080fd5b83356001600160401b0380821115611a4757600080fd5b611a5387838801611725565b94506020860135915080821115611a6957600080fd5b50611a7686828701611725565b925050604084013590509250925092565b60008060408385031215611a9a57600080fd5b611aa3836115d6565b915060208301358015158114611ab857600080fd5b809150509250929050565b60008060408385031215611ad657600080fd5b50508035926020909101359150565b60008060408385031215611af857600080fd5b611b01836115d6565b9150611b0f602084016115d6565b90509250929050565b600080600080600060a08688031215611b3057600080fd5b611b39866115d6565b9450611b47602087016115d6565b9350604086013592506060860135915060808601356001600160401b03811115611b7057600080fd5b61183488828901611725565b600080600060608486031215611b9157600080fd5b611b9a846115d6565b95602085013595506040909401359392505050565b600181811c90821680611bc357607f821691505b602082108103611be357634e487b7160e01b600052602260045260246000fd5b50919050565b634e487b7160e01b600052603260045260246000fd5b634e487b7160e01b600052601160045260246000fd5b600060018201611c2757611c27611bff565b5060010190565b60208082526027908201527f4f6e6c792041646d696e2063616e20657865637574652074686973207472616e60408201526639b0b1ba34b7b760c91b606082015260800190565b60208082526029908201527f455243313135353a2063616c6c6572206973206e6f74206f776e6572206e6f7260408201526808185c1c1c9bdd995960ba1b606082015260800190565b601f82111561079757600081815260208120601f850160051c81016020861015611ce55750805b601f850160051c820191505b81811015610b2a57828155600101611cf1565b81516001600160401b03811115611d1d57611d1d61164f565b611d3181611d2b8454611baf565b84611cbe565b602080601f831160018114611d665760008415611d4e5750858301515b600019600386901b1c1916600185901b178555610b2a565b600085815260208120601f198616915b82811015611d9557888601518255948401946001909101908401611d76565b5085821015611db35787850151600019600388901b60f8161c191681555b5050505050600190811b01905550565b60208082526028908201527f455243313135353a2069647320616e6420616d6f756e7473206c656e677468206040820152670dad2e6dac2e8c6d60c31b606082015260800190565b60208082526025908201527f455243313135353a207472616e7366657220746f20746865207a65726f206164604082015264647265737360d81b606082015260800190565b6020808252602a908201527f455243313135353a20696e73756666696369656e742062616c616e636520666f60408201526939103a3930b739b332b960b11b606082015260800190565b8082018082111561044257610442611bff565b604081526000611ec0604083018561190b565b8281036020840152611ed2818561190b565b95945050505050565b60208082526023908201527f455243313135353a206275726e2066726f6d20746865207a65726f206164647260408201526265737360e81b606082015260800190565b60208082526024908201527f455243313135353a206275726e20616d6f756e7420657863656564732062616c604082015263616e636560e01b606082015260800190565b60008351611f7481846020880161156c565b602f60f81b9083019081528351611f9281600184016020880161156c565b64173539b7b760d91b60019290910191820152600601949350505050565b6001600160a01b0386811682528516602082015260a060408201819052600090611fdc9083018661190b565b8281036060840152611fee818661190b565b905082810360808401526120028185611590565b98975050505050505050565b60006020828403121561202057600080fd5b81516115cf8161161c565b600060033d11156120445760046000803e5060005160e01c5b90565b600060443d10156120555790565b6040516003193d81016004833e81513d6001600160401b03816024840111818411171561208457505050505090565b828501915081518181111561209c5750505050505090565b843d87010160208285010111156120b65750505050505090565b6120c560208286010187611665565b509095945050505050565b60208082526028908201527f455243313135353a204552433131353552656365697665722072656a656374656040820152676420746f6b656e7360c01b606082015260800190565b6001600160a01b03868116825285166020820152604081018490526060810183905260a06080820181905260009061215290830184611590565b979650505050505050565b634e487b7160e01b600052601260045260246000fd5b6000826121825761218261215d565b500490565b8181038181111561044257610442611bff565b6000826121a9576121a961215d565b50069056fec3d58168c5ae7397731d063d5bbf3d657854427343f4c083240f7aacaa2d0f62a2646970667358221220005770ae656c4e68e1cd1fa44eb88414f9c9a9a68b130213426f3830a162219e64736f6c63430008100033",
  "immutableReferences": {},
  "source": "//SPDX-License-Identifier: LGPL-3.0\r\npragma solidity ^0.8.16;\r\n\r\n//ERC1155 Tokens\r\nimport '@openzeppelin/contracts/token/ERC1155/ERC1155.sol';\r\nimport \"@openzeppelin/contracts/token/ERC1155/extensions/ERC1155Supply.sol\";\r\nimport '@openzeppelin/contracts/token/ERC1155/extensions/ERC1155Burnable.sol';\r\n\r\n//Utils\r\nimport \"@openzeppelin/contracts/utils/Counters.sol\";\r\nimport '@openzeppelin/contracts/access/AccessControl.sol';\r\nimport \"@openzeppelin/contracts/utils/Strings.sol\";\r\n\r\ncontract RahatERC1155 is ERC1155,ERC1155Supply,ERC1155Burnable{\r\n    \r\n    using Counters for Counters.Counter;\r\n    using Strings for uint256;\r\n    \r\n    Counters.Counter private _itemIds; // tracks the token ids\r\n    \r\n\tmapping(address => bool) public owner;\r\n\tmapping(uint256 => string) public name;\r\n\tmapping(uint256 => string) public symbol;\r\n\r\n\tmodifier OnlyOwner {\r\n\t\trequire(owner[tx.origin], 'Only Admin can execute this transaction');\r\n\t\t_;\r\n\t}\r\n\r\n\tconstructor(address _admin) ERC1155(\"https://ipfs.rumsan.com/ipfs\") {\r\n\t\towner[_admin] = true;\r\n\t}\r\n\t\r\n\r\n\t///@dev Mint New NFT to the caller\r\n    ///@param _name name of NFT\r\n    ///@param _symbol symbol of NFT\r\n    ///@param _amount amount of NFT\r\n\tfunction mintERC1155(\tstring memory _name,\r\n\t\tstring memory _symbol,uint256 _amount) public returns (uint256) {\r\n\t   _itemIds.increment();\r\n\t   uint256 newItemId = _itemIds.current();\r\n\t   name[newItemId] = _name;\r\n\t   symbol[newItemId] = _symbol;\r\n\t    _mint(msg.sender, newItemId, _amount, \"\");\r\n\t    \r\n\t    return newItemId;\r\n\t}\r\n\t\r\n    ///@dev set the baseURI of NFT\r\n    ///@param newuri base URI(eg: https://ipfs.io/ipfs)\r\n\tfunction setBaseURI(string memory newuri) public OnlyOwner {\r\n        _setURI(newuri);\r\n    }\r\n    \r\n    ///@dev check if the given tokenId exists\r\n    ///@param _id ERC1155 tokenId\r\n    function exists(uint256 _id) public view override returns(bool){\r\n         return(_itemIds.current() >= _id);\r\n    }\r\n\r\n\t///@dev mint ERC1155 token of given tokenId\r\n    ///@param _id ERC1155 tokenid\r\n    ///@param _amount amount of ERC1155 token to be minted \r\n\tfunction mintExistingERC1155(uint256 _id,uint256 _amount) public {\r\n\t    require(exists(_id),\"token with given id doesn't exists\");\r\n\t    _mint(msg.sender, _id, _amount, \"\");\r\n\t}\r\n\t\r\n    ///@dev Get the token URI of given tokenId\r\n    ///@param _tokenId ERC1155 tokenId\r\n\tfunction getTokenData(uint256 _tokenId) public view returns(string memory){\r\n\t    return _toFullURI(uri(_tokenId),_tokenId);\r\n\t}\r\n\t\r\n    function _toFullURI(string memory _baseUri, uint256 _tokenId)\r\n        internal\r\n        pure\r\n        returns (string memory)\r\n    {\r\n        return\r\n            string(\r\n                abi.encodePacked(\r\n                    _baseUri,\r\n                    \"/\",\r\n                    _tokenId.toString(),\r\n                    \".json\"\r\n                )\r\n            );\r\n    }\r\n\r\n    function addOwner(address _account) public OnlyOwner {\r\n\t\towner[_account] = true;\r\n\t}\r\n\r\n\r\n\r\n\tfunction _beforeTokenTransfer(address operator, address from, address to, uint256[] memory ids, uint256[] memory amounts, bytes memory data)\r\n        internal\r\n        override(ERC1155, ERC1155Supply)\r\n    {\r\n       super._beforeTokenTransfer(operator, from, to, ids, amounts, data);\r\n    }\r\n\r\n //RESOLVE REMIX ISSUES   \r\n    // function _mint(address account, uint256 id, uint256 amount, bytes memory data)\r\n    //     internal\r\n    //     override(ERC1155, ERC1155Supply)\r\n    // {\r\n    //     super._mint(account,id,amount,data);\r\n    // }\r\n    // function _mintBatch(address account, uint256[] memory ids, uint256[] memory amounts, bytes memory data)\r\n    //     internal\r\n    //     override(ERC1155, ERC1155Supply)\r\n    // {\r\n    //     super._mintBatch(account,ids,amounts,data);\r\n    // }\r\n    // function _burn(address account, uint256 id, uint256 amount)\r\n    //     internal\r\n    //     override(ERC1155, ERC1155Supply)\r\n    // {\r\n    //     super._burn(account,id,amount);\r\n    // }\r\n    // function _burnBatch(address account, uint256[] memory ids, uint256[] memory amounts)\r\n    //     internal\r\n    //     override(ERC1155, ERC1155Supply)\r\n    // {\r\n    //     super._burnBatch(account,ids,amounts);\r\n    // }\r\n\r\n}",
  "sourcePath": "S:\\Projects\\rahat\\unicef-np\\rahat-contracts\\src\\contracts\\RahatERC1155.sol",
  "compiler": {
    "name": "solc",
    "version": "0.8.16+commit.07a7930e.Emscripten.clang"
  },
  "schemaVersion": "3.4.9",
  "updatedAt": "2022-09-06T09:06:42.937Z",
  "devdoc": {
    "kind": "dev",
    "methods": {
      "balanceOf(address,uint256)": {
        "details": "See {IERC1155-balanceOf}. Requirements: - `account` cannot be the zero address."
      },
      "balanceOfBatch(address[],uint256[])": {
        "details": "See {IERC1155-balanceOfBatch}. Requirements: - `accounts` and `ids` must have the same length."
      },
      "exists(uint256)": {
        "details": "check if the given tokenId exists",
        "params": {
          "_id": "ERC1155 tokenId"
        }
      },
      "getTokenData(uint256)": {
        "details": "Get the token URI of given tokenId",
        "params": {
          "_tokenId": "ERC1155 tokenId"
        }
      },
      "isApprovedForAll(address,address)": {
        "details": "See {IERC1155-isApprovedForAll}."
      },
      "mintERC1155(string,string,uint256)": {
        "details": "Mint New NFT to the caller",
        "params": {
          "_amount": "amount of NFT",
          "_name": "name of NFT",
          "_symbol": "symbol of NFT"
        }
      },
      "mintExistingERC1155(uint256,uint256)": {
        "details": "mint ERC1155 token of given tokenId",
        "params": {
          "_amount": "amount of ERC1155 token to be minted ",
          "_id": "ERC1155 tokenid"
        }
      },
      "safeBatchTransferFrom(address,address,uint256[],uint256[],bytes)": {
        "details": "See {IERC1155-safeBatchTransferFrom}."
      },
      "safeTransferFrom(address,address,uint256,uint256,bytes)": {
        "details": "See {IERC1155-safeTransferFrom}."
      },
      "setApprovalForAll(address,bool)": {
        "details": "See {IERC1155-setApprovalForAll}."
      },
      "setBaseURI(string)": {
        "details": "set the baseURI of NFT",
        "params": {
          "newuri": "base URI(eg: https://ipfs.io/ipfs)"
        }
      },
      "supportsInterface(bytes4)": {
        "details": "See {IERC165-supportsInterface}."
      },
      "totalSupply(uint256)": {
        "details": "Total amount of tokens in with a given id."
      },
      "uri(uint256)": {
        "details": "See {IERC1155MetadataURI-uri}. This implementation returns the same URI for *all* token types. It relies on the token type ID substitution mechanism https://eips.ethereum.org/EIPS/eip-1155#metadata[defined in the EIP]. Clients calling this function must replace the `\\{id\\}` substring with the actual token type ID."
      }
    },
    "version": 1
  },
  "userdoc": {
    "kind": "user",
    "methods": {},
    "version": 1
  }
}