{
  "contractName": "RahatTriggerResponse",
  "abi": [
    {
      "inputs": [
        {
          "internalType": "address",
          "name": "_adminAddress",
          "type": "address"
        },
        {
          "internalType": "uint128",
          "name": "_requiredConfirmations",
          "type": "uint128"
        }
      ],
      "stateMutability": "nonpayable",
      "type": "constructor"
    },
    {
      "inputs": [
        {
          "internalType": "bytes32",
          "name": "",
          "type": "bytes32"
        },
        {
          "internalType": "address",
          "name": "",
          "type": "address"
        }
      ],
      "name": "adminConfirmations",
      "outputs": [
        {
          "internalType": "bool",
          "name": "",
          "type": "bool"
        }
      ],
      "stateMutability": "view",
      "type": "function"
    },
    {
      "inputs": [
        {
          "internalType": "address",
          "name": "",
          "type": "address"
        }
      ],
      "name": "isAdmin",
      "outputs": [
        {
          "internalType": "bool",
          "name": "",
          "type": "bool"
        }
      ],
      "stateMutability": "view",
      "type": "function"
    },
    {
      "inputs": [],
      "name": "isLive",
      "outputs": [
        {
          "internalType": "bool",
          "name": "",
          "type": "bool"
        }
      ],
      "stateMutability": "view",
      "type": "function"
    },
    {
      "inputs": [],
      "name": "requiredConfirmations",
      "outputs": [
        {
          "internalType": "uint128",
          "name": "",
          "type": "uint128"
        }
      ],
      "stateMutability": "view",
      "type": "function"
    },
    {
      "stateMutability": "payable",
      "type": "receive"
    },
    {
      "inputs": [
        {
          "internalType": "address",
          "name": "_adminAddress",
          "type": "address"
        }
      ],
      "name": "addAdmin",
      "outputs": [],
      "stateMutability": "nonpayable",
      "type": "function"
    },
    {
      "inputs": [],
      "name": "listAdmins",
      "outputs": [
        {
          "internalType": "address[]",
          "name": "",
          "type": "address[]"
        }
      ],
      "stateMutability": "view",
      "type": "function"
    },
    {
      "inputs": [
        {
          "internalType": "address",
          "name": "_adminAddress",
          "type": "address"
        }
      ],
      "name": "removeAdmin",
      "outputs": [],
      "stateMutability": "nonpayable",
      "type": "function"
    },
    {
      "inputs": [
        {
          "internalType": "string",
          "name": "_projectId",
          "type": "string"
        }
      ],
      "name": "deactivateResponse",
      "outputs": [],
      "stateMutability": "nonpayable",
      "type": "function"
    },
    {
      "inputs": [
        {
          "internalType": "string",
          "name": "_projectId",
          "type": "string"
        }
      ],
      "name": "activateResponse",
      "outputs": [],
      "stateMutability": "nonpayable",
      "type": "function"
    },
    {
      "inputs": [
        {
          "internalType": "bytes32",
          "name": "_hash",
          "type": "bytes32"
        }
      ],
      "name": "isConfirmed",
      "outputs": [
        {
          "internalType": "bool",
          "name": "_confirmed",
          "type": "bool"
        }
      ],
      "stateMutability": "view",
      "type": "function"
    },
    {
      "inputs": [
        {
          "internalType": "address payable",
          "name": "_destAddress",
          "type": "address"
        },
        {
          "internalType": "uint256",
          "name": "_amount",
          "type": "uint256"
        }
      ],
      "name": "transferEther",
      "outputs": [
        {
          "internalType": "bool",
          "name": "",
          "type": "bool"
        }
      ],
      "stateMutability": "nonpayable",
      "type": "function"
    }
  ],
  "bytecode": "0x608060405234801561001057600080fd5b50604051610cc9380380610cc983398101604081905261002f91610102565b61004782600261009560201b6106301790919060201c565b506001600160a01b039091166000908152600460205260408120805460ff1916600117905580546001600160801b0390921661010002610100600160881b0319909216919091179055610154565b60006100aa836001600160a01b0384166100b3565b90505b92915050565b60008181526001830160205260408120546100fa575081546001818101845560008481526020808220909301849055845484825282860190935260409020919091556100ad565b5060006100ad565b6000806040838503121561011557600080fd5b82516001600160a01b038116811461012c57600080fd5b60208401519092506001600160801b038116811461014957600080fd5b809150509250929050565b610b66806101636000396000f3fe6080604052600436106100905760003560e01c806305b1137b1461009c5780631785f53c146100d157806324d7806c146100f35780633204d1e5146101235780636486aa511461015e578063704802751461017e57806382e717f71461019e5780638a6f241d146101db578063a591afbe146101fb578063b8f7a6651461021d578063d89008d01461023757600080fd5b3661009757005b600080fd5b3480156100a857600080fd5b506100bc6100b7366004610861565b610257565b60405190151581526020015b60405180910390f35b3480156100dd57600080fd5b506100f16100ec36600461088d565b6102ee565b005b3480156100ff57600080fd5b506100bc61010e36600461088d565b60046020526000908152604090205460ff1681565b34801561012f57600080fd5b506100bc61013e3660046108aa565b600160209081526000928352604080842090915290825290205460ff1681565b34801561016a57600080fd5b506100bc6101793660046108da565b61034a565b34801561018a57600080fd5b506100f161019936600461088d565b6103e0565b3480156101aa57600080fd5b506000546101c39061010090046001600160801b031681565b6040516001600160801b0390911681526020016100c8565b3480156101e757600080fd5b506100f16101f6366004610909565b61043f565b34801561020757600080fd5b5061021061052a565b6040516100c891906109ba565b34801561022957600080fd5b506000546100bc9060ff1681565b34801561024357600080fd5b506100f1610252366004610909565b61053b565b3360009081526004602052604081205460ff1661028f5760405162461bcd60e51b815260040161028690610a07565b60405180910390fd5b6000836001600160a01b03168360405160006040518083038185875af1925050503d80600081146102dc576040519150601f19603f3d011682016040523d82523d6000602084013e6102e1565b606091505b5090925050505b92915050565b3360009081526004602052604090205460ff1661031d5760405162461bcd60e51b815260040161028690610a07565b61032860028261064c565b506001600160a01b03166000908152600460205260409020805460ff19169055565b60008060005b61035a6002610661565b8110156103d95760008481526001602052604081209061037b60028461066b565b6001600160a01b0316815260208101919091526040016000205460ff16156103ab576103a8600183610a74565b91505b60005461010090046001600160801b031682036103c757600192505b806103d181610a87565b915050610350565b5050919050565b3360009081526004602052604090205460ff1661040f5760405162461bcd60e51b815260040161028690610a07565b61041a600282610630565b506001600160a01b03166000908152600460205260409020805460ff19166001179055565b3360009081526004602052604090205460ff1661046e5760405162461bcd60e51b815260040161028690610a07565b6000816040516020016104819190610aa0565b60408051808303601f190181528282528051602091820120600081815260018352838120338252909252919020805460ff19169055636486aa5160e01b82526004820181905291503090636486aa5190602401602060405180830381865afa1580156104f1573d6000803e3d6000fd5b505050506040513d601f19601f820116820180604052508101906105159190610acf565b6000805460ff19169115159190911790555050565b60606105366002610677565b905090565b3360009081526004602052604090205460ff1661056a5760405162461bcd60e51b815260040161028690610a07565b60008160405160200161057d9190610aa0565b60408051808303601f1901815282825280516020918201206000818152600180845284822033835290935292909220805460ff19169091179055636486aa5160e01b82526004820181905291503090636486aa5190602401602060405180830381865afa1580156105f2573d6000803e3d6000fd5b505050506040513d601f19601f820116820180604052508101906106169190610acf565b61061e575050565b506000805460ff191660011790555b50565b6000610645836001600160a01b038416610684565b9392505050565b6000610645836001600160a01b0384166106d3565b60006102e8825490565b600061064583836107c6565b60606000610645836107f0565b60008181526001830160205260408120546106cb575081546001818101845560008481526020808220909301849055845484825282860190935260409020919091556102e8565b5060006102e8565b600081815260018301602052604081205480156107bc5760006106f7600183610af1565b855490915060009061070b90600190610af1565b905081811461077057600086600001828154811061072b5761072b610b04565b906000526020600020015490508087600001848154811061074e5761074e610b04565b6000918252602080832090910192909255918252600188019052604090208390555b855486908061078157610781610b1a565b6001900381819060005260206000200160009055905585600101600086815260200190815260200160002060009055600193505050506102e8565b60009150506102e8565b60008260000182815481106107dd576107dd610b04565b9060005260206000200154905092915050565b60608160000180548060200260200160405190810160405280929190818152602001828054801561084057602002820191906000526020600020905b81548152602001906001019080831161082c575b50505050509050919050565b6001600160a01b038116811461062d57600080fd5b6000806040838503121561087457600080fd5b823561087f8161084c565b946020939093013593505050565b60006020828403121561089f57600080fd5b81356106458161084c565b600080604083850312156108bd57600080fd5b8235915060208301356108cf8161084c565b809150509250929050565b6000602082840312156108ec57600080fd5b5035919050565b634e487b7160e01b600052604160045260246000fd5b60006020828403121561091b57600080fd5b813567ffffffffffffffff8082111561093357600080fd5b818401915084601f83011261094757600080fd5b813581811115610959576109596108f3565b604051601f8201601f19908116603f01168101908382118183101715610981576109816108f3565b8160405282815287602084870101111561099a57600080fd5b826020860160208301376000928101602001929092525095945050505050565b6020808252825182820181905260009190848201906040850190845b818110156109fb5783516001600160a01b0316835292840192918401916001016109d6565b50909695505050505050565b60208082526037908201527f54726967676572526573706f73653a204f6e6c792041646d696e2063616e20656040820152763c32b1baba32903a3434b9903a3930b739b0b1ba34b7b760491b606082015260800190565b634e487b7160e01b600052601160045260246000fd5b808201808211156102e8576102e8610a5e565b600060018201610a9957610a99610a5e565b5060010190565b6000825160005b81811015610ac15760208186018101518583015201610aa7565b506000920191825250919050565b600060208284031215610ae157600080fd5b8151801515811461064557600080fd5b818103818111156102e8576102e8610a5e565b634e487b7160e01b600052603260045260246000fd5b634e487b7160e01b600052603160045260246000fdfea26469706673582212204402fd1493d4ab0812dfd6f0608588ecfa0bd55211729ba5675736001747b3d764736f6c63430008100033",
  "immutableReferences": {},
  "source": "//SPDX-License-Identifier: LGPL-3.0\r\npragma solidity ^0.8.16;\r\n\r\nimport \"@openzeppelin/contracts/utils/structs/EnumerableSet.sol\";\r\n\r\ncontract RahatTriggerResponse {\r\n  using EnumerableSet for EnumerableSet.AddressSet;\r\n\r\n  bool public isLive;\r\n  uint128 public requiredConfirmations;\r\n  mapping(bytes32 => mapping(address => bool)) public adminConfirmations; //TxHash > Admin > bool\r\n  EnumerableSet.AddressSet internal _adminSet;\r\n  mapping(address => bool) public isAdmin;\r\n\r\n  //Modifiers\r\n  modifier OnlyAdmin() {\r\n    require(\r\n      isAdmin[msg.sender],\r\n      \"TriggerRespose: Only Admin can execute this transaction\"\r\n    );\r\n    _;\r\n  }\r\n\r\n  constructor(address _adminAddress, uint128 _requiredConfirmations) {\r\n    _adminSet.add(_adminAddress);\r\n    isAdmin[_adminAddress] = true;\r\n    requiredConfirmations = _requiredConfirmations;\r\n  }\r\n\r\n  // Admin manage\r\n  function addAdmin(address _adminAddress) public OnlyAdmin {\r\n    _adminSet.add(_adminAddress);\r\n    isAdmin[_adminAddress] = true;\r\n  }\r\n\r\n   function listAdmins() public view returns (address[] memory) {\r\n    return _adminSet.values();\r\n  }\r\n\r\n  function removeAdmin(address _adminAddress) public OnlyAdmin {\r\n    _adminSet.remove(_adminAddress);\r\n    isAdmin[_adminAddress] = false;\r\n  }\r\n\r\n  function deactivateResponse(string memory _projectId) public OnlyAdmin {\r\n    bytes32 _hash = keccak256(abi.encodePacked(_projectId));\r\n    adminConfirmations[_hash][msg.sender] = false;\r\n    isLive = this.isConfirmed(_hash);\r\n  }\r\n\r\n  function activateResponse(string memory _projectId) public OnlyAdmin {\r\n    bytes32 _hash = keccak256(abi.encodePacked(_projectId));\r\n    adminConfirmations[_hash][msg.sender] = true;\r\n    if (!this.isConfirmed(_hash)) return;\r\n    isLive = true;\r\n  }\r\n\r\n  function isConfirmed(bytes32 _hash) public view returns (bool _confirmed) {\r\n    _confirmed = false;\r\n    uint256 count = 0;\r\n    for (uint256 i = 0; i < _adminSet.length(); i++) {\r\n      if (adminConfirmations[_hash][_adminSet.at(i)]) count += 1;\r\n      if (count == requiredConfirmations) _confirmed = true;\r\n    }\r\n  }\r\n\r\n  //#region Token manage\r\n\r\n  function transferEther(address payable _destAddress, uint256 _amount)\r\n    public\r\n    OnlyAdmin\r\n    returns (bool)\r\n  {\r\n    (bool success, ) = _destAddress.call{ value: _amount }(\"\");\r\n    return success;\r\n  }\r\n\r\n  receive() external payable {}\r\n  //#endregion\r\n}\r\n",
  "sourcePath": "S:\\Projects\\rahat\\unicef-np\\rahat-contracts\\src\\contracts\\RahatTriggerResponse.sol",
  "compiler": {
    "name": "solc",
    "version": "0.8.16+commit.07a7930e.Emscripten.clang"
  },
  "schemaVersion": "3.4.9",
  "updatedAt": "2022-09-06T09:06:42.966Z",
  "devdoc": {
    "kind": "dev",
    "methods": {},
    "version": 1
  },
  "userdoc": {
    "kind": "user",
    "methods": {},
    "version": 1
  }
}